{
  "contractName": "Authentication",
  "abi": [
    {
      "constant": false,
      "inputs": [
        {
          "name": "business_id",
          "type": "bytes32"
        }
      ],
      "name": "ClaimBusiness",
      "outputs": [
        {
          "name": "",
          "type": "bool"
        }
      ],
      "payable": true,
      "stateMutability": "payable",
      "type": "function"
    },
    {
      "constant": true,
      "inputs": [],
      "name": "GetFriends",
      "outputs": [
        {
          "name": "",
          "type": "address[]"
        }
      ],
      "payable": false,
      "stateMutability": "view",
      "type": "function"
    },
    {
      "constant": false,
      "inputs": [
        {
          "name": "business_id",
          "type": "bytes32"
        },
        {
          "name": "un",
          "type": "bool"
        }
      ],
      "name": "AddBookmark",
      "outputs": [
        {
          "name": "",
          "type": "bool"
        }
      ],
      "payable": true,
      "stateMutability": "payable",
      "type": "function"
    },
    {
      "constant": true,
      "inputs": [],
      "name": "GetFriendRequestCount",
      "outputs": [
        {
          "name": "",
          "type": "uint256"
        }
      ],
      "payable": false,
      "stateMutability": "view",
      "type": "function"
    },
    {
      "constant": false,
      "inputs": [
        {
          "name": "name",
          "type": "bytes32"
        }
      ],
      "name": "signup",
      "outputs": [
        {
          "name": "",
          "type": "bytes32"
        }
      ],
      "payable": true,
      "stateMutability": "payable",
      "type": "function"
    },
    {
      "constant": true,
      "inputs": [],
      "name": "GetClaims",
      "outputs": [
        {
          "name": "",
          "type": "bytes32[]"
        }
      ],
      "payable": false,
      "stateMutability": "view",
      "type": "function"
    },
    {
      "constant": false,
      "inputs": [
        {
          "name": "from",
          "type": "address"
        }
      ],
      "name": "AcceptFriendRequest",
      "outputs": [
        {
          "name": "",
          "type": "bool"
        }
      ],
      "payable": true,
      "stateMutability": "payable",
      "type": "function"
    },
    {
      "constant": true,
      "inputs": [],
      "name": "GetPeople",
      "outputs": [
        {
          "name": "",
          "type": "address[]"
        }
      ],
      "payable": false,
      "stateMutability": "view",
      "type": "function"
    },
    {
      "constant": false,
      "inputs": [
        {
          "name": "name",
          "type": "bytes32"
        }
      ],
      "name": "update",
      "outputs": [
        {
          "name": "",
          "type": "bytes32"
        }
      ],
      "payable": true,
      "stateMutability": "payable",
      "type": "function"
    },
    {
      "constant": true,
      "inputs": [
        {
          "name": "",
          "type": "uint256"
        }
      ],
      "name": "people",
      "outputs": [
        {
          "name": "",
          "type": "address"
        }
      ],
      "payable": false,
      "stateMutability": "view",
      "type": "function"
    },
    {
      "constant": true,
      "inputs": [],
      "name": "GetLikes",
      "outputs": [
        {
          "name": "",
          "type": "bytes32[]"
        }
      ],
      "payable": false,
      "stateMutability": "view",
      "type": "function"
    },
    {
      "constant": true,
      "inputs": [],
      "name": "login",
      "outputs": [
        {
          "name": "",
          "type": "bytes32"
        }
      ],
      "payable": false,
      "stateMutability": "view",
      "type": "function"
    },
    {
      "constant": true,
      "inputs": [
        {
          "name": "usraddr",
          "type": "address"
        }
      ],
      "name": "GetName",
      "outputs": [
        {
          "name": "",
          "type": "bytes32"
        }
      ],
      "payable": false,
      "stateMutability": "view",
      "type": "function"
    },
    {
      "constant": false,
      "inputs": [
        {
          "name": "business_id",
          "type": "bytes32"
        },
        {
          "name": "un",
          "type": "bool"
        }
      ],
      "name": "AddLikes",
      "outputs": [
        {
          "name": "",
          "type": "bool"
        }
      ],
      "payable": true,
      "stateMutability": "payable",
      "type": "function"
    },
    {
      "constant": true,
      "inputs": [],
      "name": "GetFriendRequests",
      "outputs": [
        {
          "name": "",
          "type": "address[]"
        }
      ],
      "payable": false,
      "stateMutability": "view",
      "type": "function"
    },
    {
      "constant": false,
      "inputs": [
        {
          "name": "to",
          "type": "address"
        }
      ],
      "name": "SendFriendRequest",
      "outputs": [
        {
          "name": "",
          "type": "bool"
        }
      ],
      "payable": true,
      "stateMutability": "payable",
      "type": "function"
    },
    {
      "constant": true,
      "inputs": [],
      "name": "GetBookmarks",
      "outputs": [
        {
          "name": "",
          "type": "bytes32[]"
        }
      ],
      "payable": false,
      "stateMutability": "view",
      "type": "function"
    }
  ],
  "bytecode": "0x6060604052341561000f57600080fd5b6117e68061001e6000396000f3006060604052600436106100f1576000357c0100000000000000000000000000000000000000000000000000000000900463ffffffff1680631d8e3f93146100f65780632e9adba21461012a57806352f4cdf014610194578063551f9be0146101d35780635c1397de146101fc5780635c6571d8146102345780636b2a638a1461029e578063740ce6cf146102e45780638b1472451461034e5780639e7a13ad14610386578063a79443c5146103e9578063b34e97e814610453578063d3a72ea114610484578063d9da9e08146104d9578063db7dabda14610518578063e3cc821414610582578063f5d7fa2f146105c8575b600080fd5b610110600480803560001916906020019091905050610632565b604051808215151515815260200191505060405180910390f35b341561013557600080fd5b61013d6106ac565b6040518080602001828103825283818151815260200191508051906020019060200280838360005b83811015610180578082015181840152602081019050610165565b505050509050019250505060405180910390f35b6101b9600480803560001916906020019091908035151590602001909190505061077d565b604051808215151515815260200191505060405180910390f35b34156101de57600080fd5b6101e661093c565b6040518082815260200191505060405180910390f35b610216600480803560001916906020019091905050610985565b60405180826000191660001916815260200191505060405180910390f35b341561023f57600080fd5b610247610b35565b6040518080602001828103825283818151815260200191508051906020019060200280838360005b8381101561028a57808201518184015260208101905061026f565b505050509050019250505060405180910390f35b6102ca600480803573ffffffffffffffffffffffffffffffffffffffff16906020019091905050610bd7565b604051808215151515815260200191505060405180910390f35b34156102ef57600080fd5b6102f7610f50565b6040518080602001828103825283818151815260200191508051906020019060200280838360005b8381101561033a57808201518184015260208101905061031f565b505050509050019250505060405180910390f35b610368600480803560001916906020019091905050610fe4565b60405180826000191660001916815260200191505060405180910390f35b341561039157600080fd5b6103a76004808035906020019091905050611146565b604051808273ffffffffffffffffffffffffffffffffffffffff1673ffffffffffffffffffffffffffffffffffffffff16815260200191505060405180910390f35b34156103f457600080fd5b6103fc611185565b6040518080602001828103825283818151815260200191508051906020019060200280838360005b8381101561043f578082015181840152602081019050610424565b505050509050019250505060405180910390f35b341561045e57600080fd5b610466611227565b60405180826000191660001916815260200191505060405180910390f35b341561048f57600080fd5b6104bb600480803573ffffffffffffffffffffffffffffffffffffffff169060200190919050506112c9565b60405180826000191660001916815260200191505060405180910390f35b6104fe6004808035600019169060200190919080351515906020019091905050611315565b604051808215151515815260200191505060405180910390f35b341561052357600080fd5b61052b6114d4565b6040518080602001828103825283818151815260200191508051906020019060200280838360005b8381101561056e578082015181840152602081019050610553565b505050509050019250505060405180910390f35b6105ae600480803573ffffffffffffffffffffffffffffffffffffffff169060200190919050506115a4565b604051808215151515815260200191505060405180910390f35b34156105d357600080fd5b6105db61164e565b6040518080602001828103825283818151815260200191508051906020019060200280838360005b8381101561061e578082015181840152602081019050610603565b505050509050019250505060405180910390f35b6000600260003373ffffffffffffffffffffffffffffffffffffffff1673ffffffffffffffffffffffffffffffffffffffff168152602001908152602001600020600301805480600101828161068891906116f0565b91600052602060002090016000849091909150906000191690555060019050919050565b6106b461171c565b600160003373ffffffffffffffffffffffffffffffffffffffff1673ffffffffffffffffffffffffffffffffffffffff16815260200190815260200160002080548060200260200160405190810160405280929190818152602001828054801561077357602002820191906000526020600020905b8160009054906101000a900473ffffffffffffffffffffffffffffffffffffffff1673ffffffffffffffffffffffffffffffffffffffff1681526020019060010190808311610729575b5050505050905090565b6000806001151583151514156108c157600090505b6001600260003373ffffffffffffffffffffffffffffffffffffffff1673ffffffffffffffffffffffffffffffffffffffff16815260200190815260200160002060010180549050038110156108c0578360001916600260003373ffffffffffffffffffffffffffffffffffffffff1673ffffffffffffffffffffffffffffffffffffffff1681526020019081526020016000206001018281548110151561083657fe5b9060005260206000209001546000191614156108b357600260003373ffffffffffffffffffffffffffffffffffffffff1673ffffffffffffffffffffffffffffffffffffffff1681526020019081526020016000206001018181548110151561089b57fe5b90600052602060002090016000905560019150610935565b8080600101915050610792565b5b600260003373ffffffffffffffffffffffffffffffffffffffff1673ffffffffffffffffffffffffffffffffffffffff168152602001908152602001600020600101805480600101828161091591906116f0565b916000526020600020900160008690919091509060001916905550600191505b5092915050565b60008060003373ffffffffffffffffffffffffffffffffffffffff1673ffffffffffffffffffffffffffffffffffffffff16815260200190815260200160002080549050905090565b600081600060010281600019161415151561099f57600080fd5b6000600102600260003373ffffffffffffffffffffffffffffffffffffffff1673ffffffffffffffffffffffffffffffffffffffff16815260200190815260200160002060000154600019161415610ae95782600260003373ffffffffffffffffffffffffffffffffffffffff1673ffffffffffffffffffffffffffffffffffffffff168152602001908152602001600020600001816000191690555060038054806001018281610a509190611730565b9160005260206000209001600033909190916101000a81548173ffffffffffffffffffffffffffffffffffffffff021916908373ffffffffffffffffffffffffffffffffffffffff16021790555050600260003373ffffffffffffffffffffffffffffffffffffffff1673ffffffffffffffffffffffffffffffffffffffff168152602001908152602001600020600001549150610b2f565b600260003373ffffffffffffffffffffffffffffffffffffffff1673ffffffffffffffffffffffffffffffffffffffff1681526020019081526020016000206000015491505b50919050565b610b3d61175c565b600260003373ffffffffffffffffffffffffffffffffffffffff1673ffffffffffffffffffffffffffffffffffffffff168152602001908152602001600020600301805480602002602001604051908101604052809291908181526020018280548015610bcd57602002820191906000526020600020905b81546000191681526020019060010190808311610bb5575b5050505050905090565b600080600160003373ffffffffffffffffffffffffffffffffffffffff1673ffffffffffffffffffffffffffffffffffffffff1681526020019081526020016000208054806001018281610c2b9190611730565b9160005260206000209001600085909190916101000a81548173ffffffffffffffffffffffffffffffffffffffff021916908373ffffffffffffffffffffffffffffffffffffffff16021790555050600090505b60016000803373ffffffffffffffffffffffffffffffffffffffff1673ffffffffffffffffffffffffffffffffffffffff168152602001908152602001600020805490500381111515610f45578273ffffffffffffffffffffffffffffffffffffffff166000803373ffffffffffffffffffffffffffffffffffffffff1673ffffffffffffffffffffffffffffffffffffffff16815260200190815260200160002082815481101515610d2e57fe5b906000526020600020900160009054906101000a900473ffffffffffffffffffffffffffffffffffffffff1673ffffffffffffffffffffffffffffffffffffffff161415610f3857600160003373ffffffffffffffffffffffffffffffffffffffff1673ffffffffffffffffffffffffffffffffffffffff1681526020019081526020016000208054806001018281610dc79190611730565b9160005260206000209001600085909190916101000a81548173ffffffffffffffffffffffffffffffffffffffff021916908373ffffffffffffffffffffffffffffffffffffffff16021790555050600160008473ffffffffffffffffffffffffffffffffffffffff1673ffffffffffffffffffffffffffffffffffffffff1681526020019081526020016000208054806001018281610e679190611730565b9160005260206000209001600033909190916101000a81548173ffffffffffffffffffffffffffffffffffffffff021916908373ffffffffffffffffffffffffffffffffffffffff160217905550506000803373ffffffffffffffffffffffffffffffffffffffff1673ffffffffffffffffffffffffffffffffffffffff16815260200190815260200160002081815481101515610f0157fe5b906000526020600020900160006101000a81549073ffffffffffffffffffffffffffffffffffffffff021916905560019150610f4a565b8080600101915050610c7f565b600091505b50919050565b610f5861171c565b6003805480602002602001604051908101604052809291908181526020018280548015610fda57602002820191906000526020600020905b8160009054906101000a900473ffffffffffffffffffffffffffffffffffffffff1673ffffffffffffffffffffffffffffffffffffffff1681526020019060010190808311610f90575b5050505050905090565b6000816000600102816000191614151515610ffe57600080fd5b6000600102600260003373ffffffffffffffffffffffffffffffffffffffff1673ffffffffffffffffffffffffffffffffffffffff16815260200190815260200160002060000154600019161415151561105757600080fd5b6000600102600260003373ffffffffffffffffffffffffffffffffffffffff1673ffffffffffffffffffffffffffffffffffffffff168152602001908152602001600020600001546000191614151561113f5782600260003373ffffffffffffffffffffffffffffffffffffffff1673ffffffffffffffffffffffffffffffffffffffff1681526020019081526020016000206000018160001916905550600260003373ffffffffffffffffffffffffffffffffffffffff1673ffffffffffffffffffffffffffffffffffffffff168152602001908152602001600020600001549150611140565b5b50919050565b60038181548110151561115557fe5b90600052602060002090016000915054906101000a900473ffffffffffffffffffffffffffffffffffffffff1681565b61118d61175c565b600260003373ffffffffffffffffffffffffffffffffffffffff1673ffffffffffffffffffffffffffffffffffffffff16815260200190815260200160002060020180548060200260200160405190810160405280929190818152602001828054801561121d57602002820191906000526020600020905b81546000191681526020019060010190808311611205575b5050505050905090565b600080600102600260003373ffffffffffffffffffffffffffffffffffffffff1673ffffffffffffffffffffffffffffffffffffffff16815260200190815260200160002060000154600019161415151561128157600080fd5b600260003373ffffffffffffffffffffffffffffffffffffffff1673ffffffffffffffffffffffffffffffffffffffff16815260200190815260200160002060000154905090565b6000600260008373ffffffffffffffffffffffffffffffffffffffff1673ffffffffffffffffffffffffffffffffffffffff168152602001908152602001600020600001549050919050565b60008060011515831515141561145957600090505b6001600260003373ffffffffffffffffffffffffffffffffffffffff1673ffffffffffffffffffffffffffffffffffffffff1681526020019081526020016000206002018054905003811015611458578360001916600260003373ffffffffffffffffffffffffffffffffffffffff1673ffffffffffffffffffffffffffffffffffffffff168152602001908152602001600020600201828154811015156113ce57fe5b90600052602060002090015460001916141561144b57600260003373ffffffffffffffffffffffffffffffffffffffff1673ffffffffffffffffffffffffffffffffffffffff1681526020019081526020016000206002018181548110151561143357fe5b906000526020600020900160009055600191506114cd565b808060010191505061132a565b5b600260003373ffffffffffffffffffffffffffffffffffffffff1673ffffffffffffffffffffffffffffffffffffffff16815260200190815260200160002060020180548060010182816114ad91906116f0565b916000526020600020900160008690919091509060001916905550600191505b5092915050565b6114dc61171c565b6000803373ffffffffffffffffffffffffffffffffffffffff1673ffffffffffffffffffffffffffffffffffffffff16815260200190815260200160002080548060200260200160405190810160405280929190818152602001828054801561159a57602002820191906000526020600020905b8160009054906101000a900473ffffffffffffffffffffffffffffffffffffffff1673ffffffffffffffffffffffffffffffffffffffff1681526020019060010190808311611550575b5050505050905090565b60008060008373ffffffffffffffffffffffffffffffffffffffff1673ffffffffffffffffffffffffffffffffffffffff16815260200190815260200160002080548060010182816115f69190611730565b9160005260206000209001600033909190916101000a81548173ffffffffffffffffffffffffffffffffffffffff021916908373ffffffffffffffffffffffffffffffffffffffff1602179055505060019050919050565b61165661175c565b600260003373ffffffffffffffffffffffffffffffffffffffff1673ffffffffffffffffffffffffffffffffffffffff1681526020019081526020016000206001018054806020026020016040519081016040528092919081815260200182805480156116e657602002820191906000526020600020905b815460001916815260200190600101908083116116ce575b5050505050905090565b815481835581811511611717578183600052602060002091820191016117169190611770565b5b505050565b602060405190810160405280600081525090565b815481835581811511611757578183600052602060002091820191016117569190611795565b5b505050565b602060405190810160405280600081525090565b61179291905b8082111561178e576000816000905550600101611776565b5090565b90565b6117b791905b808211156117b357600081600090555060010161179b565b5090565b905600a165627a7a72305820ba44df6fbc821f2118ce392a8aca25b072e22fdb08cbb2cfc8627605b7695ae40029",
  "source": "pragma solidity ^0.4.2;\n\n/* import './zeppelin/lifecycle/Killable.sol'; */\nimport './Notification.sol';\n\n/* contract Authentication is Killable { */\ncontract Authentication is Notification {\n  struct User {\n    bytes32 name;\n    bytes32[] bookmarks;\n    bytes32[] likes;\n    bytes32[] claims;\n    address[] friends;\n  }\n\n  mapping (address => User) private users;\n  address[] public people;\n  uint private id; // Stores user id temporarily\n\n  modifier onlyExistingUser {\n    // Check if user exists or terminate\n\n    require(!(users[msg.sender].name == 0x0));\n    _;\n  }\n\n  modifier onlyValidName(bytes32 name) {\n    // Only valid names allowed\n\n    require(!(name == 0x0));\n    _;\n  }\n\n  function login() constant public onlyExistingUser returns (bytes32) {\n    return (users[msg.sender].name);\n  }\n\n  function signup(bytes32 name) public payable onlyValidName(name) returns (bytes32) {\n    // Check if user exists.\n    // If yes, return user name.\n    // If no, check if name was sent.\n    // If yes, create and return user.\n\n    if (users[msg.sender].name == 0x0)\n    {\n        users[msg.sender].name = name;\n        people.push(msg.sender);\n        return (users[msg.sender].name);\n    }\n\n    return (users[msg.sender].name);\n  }\n\n  function GetPeople() public constant returns(address[]) {\n    return people;\n  }\n\n  function GetName(address usraddr) public constant returns(bytes32) {\n    return users[usraddr].name;\n  }\n\n  function update(bytes32 name) public payable onlyValidName(name) onlyExistingUser returns (bytes32) {\n    // Update user name.\n\n    if (users[msg.sender].name != 0x0)\n    {\n        users[msg.sender].name = name;\n\n        return (users[msg.sender].name);\n    }\n  }\n\n  function AddBookmark(bytes32 business_id, bool un) public payable returns(bool) {\n    // remove from bookmarks\n    if (un == true) {\n      for(uint i=0; i<users[msg.sender].bookmarks.length-1; i++) {\n        if(users[msg.sender].bookmarks[i] == business_id) {\n          delete users[msg.sender].bookmarks[i];\n          return true;\n        }\n      }\n    }\n\n    users[msg.sender].bookmarks.push(business_id);\n    return true;\n  }\n\n  function GetBookmarks() public constant returns(bytes32[]) {\n    return users[msg.sender].bookmarks;\n  }\n\n  function AddLikes(bytes32 business_id, bool un) public payable returns(bool) {\n    // remove from likes\n    if (un == true) {\n      for(uint i=0; i<users[msg.sender].likes.length-1; i++) {\n        if(users[msg.sender].likes[i] == business_id) {\n          delete users[msg.sender].likes[i];\n          return true;\n        }\n      }\n    }\n\n    users[msg.sender].likes.push(business_id);\n    return true;\n  }\n\n  function GetLikes() public constant returns(bytes32[]) {\n    return users[msg.sender].likes;\n  }\n\n  function ClaimBusiness(bytes32 business_id) public payable returns(bool) {\n    users[msg.sender].claims.push(business_id);\n    return true;\n  }\n\n  function GetClaims() public constant returns(bytes32[]) {\n    return users[msg.sender].claims;\n  }\n}\n",
  "sourcePath": "/home/chael/Documents/ethereum/solidity-react-auth/contracts/Authentication.sol",
  "compiler": {
    "name": "solc",
    "version": "0.4.18+commit.9cf6e910.Emscripten.clang"
  },
  "schemaVersion": "1.0.1",
  "updatedAt": "2017-12-27T12:09:20.545Z"
}