{
  "contractName": "Authentication",
  "abi": [
    {
      "constant": true,
      "inputs": [
        {
          "name": "bizID",
          "type": "bytes32"
        }
      ],
      "name": "GetLikeCount",
      "outputs": [
        {
          "name": "",
          "type": "uint256"
        }
      ],
      "payable": false,
      "stateMutability": "view",
      "type": "function"
    },
    {
      "constant": false,
      "inputs": [
        {
          "name": "business_id",
          "type": "bytes32"
        }
      ],
      "name": "ClaimBusiness",
      "outputs": [
        {
          "name": "",
          "type": "bool"
        }
      ],
      "payable": true,
      "stateMutability": "payable",
      "type": "function"
    },
    {
      "constant": true,
      "inputs": [],
      "name": "GetFriends",
      "outputs": [
        {
          "name": "",
          "type": "address[]"
        }
      ],
      "payable": false,
      "stateMutability": "view",
      "type": "function"
    },
    {
      "constant": false,
      "inputs": [
        {
          "name": "bizID",
          "type": "bytes32"
        }
      ],
      "name": "IncrementBookmarkCount",
      "outputs": [
        {
          "name": "",
          "type": "bool"
        }
      ],
      "payable": true,
      "stateMutability": "payable",
      "type": "function"
    },
    {
      "constant": false,
      "inputs": [
        {
          "name": "business_id",
          "type": "bytes32"
        },
        {
          "name": "un",
          "type": "bool"
        }
      ],
      "name": "AddBookmark",
      "outputs": [
        {
          "name": "",
          "type": "bool"
        }
      ],
      "payable": true,
      "stateMutability": "payable",
      "type": "function"
    },
    {
      "constant": true,
      "inputs": [],
      "name": "GetFriendRequestCount",
      "outputs": [
        {
          "name": "",
          "type": "uint256"
        }
      ],
      "payable": false,
      "stateMutability": "view",
      "type": "function"
    },
    {
      "constant": false,
      "inputs": [
        {
          "name": "bizID",
          "type": "bytes32"
        }
      ],
      "name": "DecrementLikeCount",
      "outputs": [
        {
          "name": "",
          "type": "bool"
        }
      ],
      "payable": true,
      "stateMutability": "payable",
      "type": "function"
    },
    {
      "constant": false,
      "inputs": [
        {
          "name": "name",
          "type": "bytes32"
        }
      ],
      "name": "signup",
      "outputs": [
        {
          "name": "",
          "type": "bytes32"
        }
      ],
      "payable": true,
      "stateMutability": "payable",
      "type": "function"
    },
    {
      "constant": true,
      "inputs": [],
      "name": "GetClaims",
      "outputs": [
        {
          "name": "",
          "type": "bytes32[]"
        }
      ],
      "payable": false,
      "stateMutability": "view",
      "type": "function"
    },
    {
      "constant": false,
      "inputs": [
        {
          "name": "from",
          "type": "address"
        }
      ],
      "name": "AcceptFriendRequest",
      "outputs": [
        {
          "name": "",
          "type": "bool"
        }
      ],
      "payable": true,
      "stateMutability": "payable",
      "type": "function"
    },
    {
      "constant": false,
      "inputs": [
        {
          "name": "bizID",
          "type": "bytes32"
        }
      ],
      "name": "IncrementLikeCount",
      "outputs": [
        {
          "name": "",
          "type": "bool"
        }
      ],
      "payable": true,
      "stateMutability": "payable",
      "type": "function"
    },
    {
      "constant": true,
      "inputs": [],
      "name": "GetPeople",
      "outputs": [
        {
          "name": "",
          "type": "address[]"
        }
      ],
      "payable": false,
      "stateMutability": "view",
      "type": "function"
    },
    {
      "constant": false,
      "inputs": [
        {
          "name": "name",
          "type": "bytes32"
        }
      ],
      "name": "update",
      "outputs": [
        {
          "name": "",
          "type": "bytes32"
        }
      ],
      "payable": true,
      "stateMutability": "payable",
      "type": "function"
    },
    {
      "constant": false,
      "inputs": [
        {
          "name": "bizID",
          "type": "bytes32"
        }
      ],
      "name": "DecrementBookmarkCount",
      "outputs": [
        {
          "name": "",
          "type": "bool"
        }
      ],
      "payable": true,
      "stateMutability": "payable",
      "type": "function"
    },
    {
      "constant": true,
      "inputs": [
        {
          "name": "bizID",
          "type": "bytes32"
        }
      ],
      "name": "GetBookmarkCount",
      "outputs": [
        {
          "name": "",
          "type": "uint256"
        }
      ],
      "payable": false,
      "stateMutability": "view",
      "type": "function"
    },
    {
      "constant": true,
      "inputs": [
        {
          "name": "",
          "type": "uint256"
        }
      ],
      "name": "people",
      "outputs": [
        {
          "name": "",
          "type": "address"
        }
      ],
      "payable": false,
      "stateMutability": "view",
      "type": "function"
    },
    {
      "constant": true,
      "inputs": [],
      "name": "GetLikes",
      "outputs": [
        {
          "name": "",
          "type": "bytes32[]"
        }
      ],
      "payable": false,
      "stateMutability": "view",
      "type": "function"
    },
    {
      "constant": true,
      "inputs": [],
      "name": "login",
      "outputs": [
        {
          "name": "",
          "type": "bytes32"
        }
      ],
      "payable": false,
      "stateMutability": "view",
      "type": "function"
    },
    {
      "constant": true,
      "inputs": [
        {
          "name": "usraddr",
          "type": "address"
        }
      ],
      "name": "GetName",
      "outputs": [
        {
          "name": "",
          "type": "bytes32"
        }
      ],
      "payable": false,
      "stateMutability": "view",
      "type": "function"
    },
    {
      "constant": false,
      "inputs": [
        {
          "name": "business_id",
          "type": "bytes32"
        },
        {
          "name": "un",
          "type": "bool"
        }
      ],
      "name": "AddLikes",
      "outputs": [
        {
          "name": "",
          "type": "bool"
        }
      ],
      "payable": true,
      "stateMutability": "payable",
      "type": "function"
    },
    {
      "constant": true,
      "inputs": [],
      "name": "GetFriendRequests",
      "outputs": [
        {
          "name": "",
          "type": "address[]"
        }
      ],
      "payable": false,
      "stateMutability": "view",
      "type": "function"
    },
    {
      "constant": false,
      "inputs": [
        {
          "name": "to",
          "type": "address"
        }
      ],
      "name": "SendFriendRequest",
      "outputs": [
        {
          "name": "",
          "type": "bool"
        }
      ],
      "payable": true,
      "stateMutability": "payable",
      "type": "function"
    },
    {
      "constant": true,
      "inputs": [],
      "name": "GetBookmarks",
      "outputs": [
        {
          "name": "",
          "type": "bytes32[]"
        }
      ],
      "payable": false,
      "stateMutability": "view",
      "type": "function"
    }
  ],
  "bytecode": "0x6060604052341561000f57600080fd5b611aba8061001e6000396000f300606060405260043610610133576000357c0100000000000000000000000000000000000000000000000000000000900463ffffffff168063172cabdf146101385780631d8e3f93146101735780632e9adba2146101a757806351afc4ae1461021157806352f4cdf014610245578063551f9be0146102845780635bd9ca5a146102ad5780635c1397de146102e15780635c6571d8146103195780636b2a638a146103835780636eca4441146103c9578063740ce6cf146103fd5780638b1472451461046757806391686c651461049f578063916da61a146104d35780639e7a13ad1461050e578063a79443c514610571578063b34e97e8146105db578063d3a72ea11461060c578063d9da9e0814610661578063db7dabda146106a0578063e3cc82141461070a578063f5d7fa2f14610750575b600080fd5b341561014357600080fd5b61015d6004808035600019169060200190919050506107ba565b6040518082815260200191505060405180910390f35b61018d6004808035600019169060200190919050506107df565b604051808215151515815260200191505060405180910390f35b34156101b257600080fd5b6101ba610859565b6040518080602001828103825283818151815260200191508051906020019060200280838360005b838110156101fd5780820151818401526020810190506101e2565b505050509050019250505060405180910390f35b61022b60048080356000191690602001909190505061092a565b604051808215151515815260200191505060405180910390f35b61026a6004808035600019169060200190919080351515906020019091905050610960565b604051808215151515815260200191505060405180910390f35b341561028f57600080fd5b610297610b33565b6040518082815260200191505060405180910390f35b6102c7600480803560001916906020019091905050610b7c565b604051808215151515815260200191505060405180910390f35b6102fb600480803560001916906020019091905050610bb3565b60405180826000191660001916815260200191505060405180910390f35b341561032457600080fd5b61032c610d63565b6040518080602001828103825283818151815260200191508051906020019060200280838360005b8381101561036f578082015181840152602081019050610354565b505050509050019250505060405180910390f35b6103af600480803573ffffffffffffffffffffffffffffffffffffffff16906020019091905050610e05565b604051808215151515815260200191505060405180910390f35b6103e360048080356000191690602001909190505061117e565b604051808215151515815260200191505060405180910390f35b341561040857600080fd5b6104106111b4565b6040518080602001828103825283818151815260200191508051906020019060200280838360005b83811015610453578082015181840152602081019050610438565b505050509050019250505060405180910390f35b610481600480803560001916906020019091905050611248565b60405180826000191660001916815260200191505060405180910390f35b6104b96004808035600019169060200190919050506113aa565b604051808215151515815260200191505060405180910390f35b34156104de57600080fd5b6104f86004808035600019169060200190919050506113e1565b6040518082815260200191505060405180910390f35b341561051957600080fd5b61052f6004808035906020019091905050611406565b604051808273ffffffffffffffffffffffffffffffffffffffff1673ffffffffffffffffffffffffffffffffffffffff16815260200191505060405180910390f35b341561057c57600080fd5b610584611445565b6040518080602001828103825283818151815260200191508051906020019060200280838360005b838110156105c75780820151818401526020810190506105ac565b505050509050019250505060405180910390f35b34156105e657600080fd5b6105ee6114e7565b60405180826000191660001916815260200191505060405180910390f35b341561061757600080fd5b610643600480803573ffffffffffffffffffffffffffffffffffffffff16906020019091905050611589565b60405180826000191660001916815260200191505060405180910390f35b61068660048080356000191690602001909190803515159060200190919050506115d5565b604051808215151515815260200191505060405180910390f35b34156106ab57600080fd5b6106b36117a8565b6040518080602001828103825283818151815260200191508051906020019060200280838360005b838110156106f65780820151818401526020810190506106db565b505050509050019250505060405180910390f35b610736600480803573ffffffffffffffffffffffffffffffffffffffff16906020019091905050611878565b604051808215151515815260200191505060405180910390f35b341561075b57600080fd5b610763611922565b6040518080602001828103825283818151815260200191508051906020019060200280838360005b838110156107a657808201518184015260208101905061078b565b505050509050019250505060405180910390f35b6000600260008360001916600019168152602001908152602001600020549050919050565b6000600460003373ffffffffffffffffffffffffffffffffffffffff1673ffffffffffffffffffffffffffffffffffffffff168152602001908152602001600020600301805480600101828161083591906119c4565b91600052602060002090016000849091909150906000191690555060019050919050565b6108616119f0565b600160003373ffffffffffffffffffffffffffffffffffffffff1673ffffffffffffffffffffffffffffffffffffffff16815260200190815260200160002080548060200260200160405190810160405280929190818152602001828054801561092057602002820191906000526020600020905b8160009054906101000a900473ffffffffffffffffffffffffffffffffffffffff1673ffffffffffffffffffffffffffffffffffffffff16815260200190600101908083116108d6575b5050505050905090565b60006003600083600019166000191681526020019081526020016000206000815480929190600101919050555060019050919050565b600080600115158315151415610aae57600090505b6001600460003373ffffffffffffffffffffffffffffffffffffffff1673ffffffffffffffffffffffffffffffffffffffff1681526020019081526020016000206001018054905003811015610aad578360001916600460003373ffffffffffffffffffffffffffffffffffffffff1673ffffffffffffffffffffffffffffffffffffffff16815260200190815260200160002060010182815481101515610a1957fe5b906000526020600020900154600019161415610aa057610a38846113aa565b50600460003373ffffffffffffffffffffffffffffffffffffffff1673ffffffffffffffffffffffffffffffffffffffff16815260200190815260200160002060010181815481101515610a8857fe5b90600052602060002090016000905560019150610b2c565b8080600101915050610975565b5b610ab78461092a565b50600460003373ffffffffffffffffffffffffffffffffffffffff1673ffffffffffffffffffffffffffffffffffffffff1681526020019081526020016000206001018054806001018281610b0c91906119c4565b916000526020600020900160008690919091509060001916905550600191505b5092915050565b60008060003373ffffffffffffffffffffffffffffffffffffffff1673ffffffffffffffffffffffffffffffffffffffff16815260200190815260200160002080549050905090565b6000600260008360001916600019168152602001908152602001600020600081548092919060019003919050555060019050919050565b6000816000600102816000191614151515610bcd57600080fd5b6000600102600460003373ffffffffffffffffffffffffffffffffffffffff1673ffffffffffffffffffffffffffffffffffffffff16815260200190815260200160002060000154600019161415610d175782600460003373ffffffffffffffffffffffffffffffffffffffff1673ffffffffffffffffffffffffffffffffffffffff168152602001908152602001600020600001816000191690555060058054806001018281610c7e9190611a04565b9160005260206000209001600033909190916101000a81548173ffffffffffffffffffffffffffffffffffffffff021916908373ffffffffffffffffffffffffffffffffffffffff16021790555050600460003373ffffffffffffffffffffffffffffffffffffffff1673ffffffffffffffffffffffffffffffffffffffff168152602001908152602001600020600001549150610d5d565b600460003373ffffffffffffffffffffffffffffffffffffffff1673ffffffffffffffffffffffffffffffffffffffff1681526020019081526020016000206000015491505b50919050565b610d6b611a30565b600460003373ffffffffffffffffffffffffffffffffffffffff1673ffffffffffffffffffffffffffffffffffffffff168152602001908152602001600020600301805480602002602001604051908101604052809291908181526020018280548015610dfb57602002820191906000526020600020905b81546000191681526020019060010190808311610de3575b5050505050905090565b600080600160003373ffffffffffffffffffffffffffffffffffffffff1673ffffffffffffffffffffffffffffffffffffffff1681526020019081526020016000208054806001018281610e599190611a04565b9160005260206000209001600085909190916101000a81548173ffffffffffffffffffffffffffffffffffffffff021916908373ffffffffffffffffffffffffffffffffffffffff16021790555050600090505b60016000803373ffffffffffffffffffffffffffffffffffffffff1673ffffffffffffffffffffffffffffffffffffffff168152602001908152602001600020805490500381111515611173578273ffffffffffffffffffffffffffffffffffffffff166000803373ffffffffffffffffffffffffffffffffffffffff1673ffffffffffffffffffffffffffffffffffffffff16815260200190815260200160002082815481101515610f5c57fe5b906000526020600020900160009054906101000a900473ffffffffffffffffffffffffffffffffffffffff1673ffffffffffffffffffffffffffffffffffffffff16141561116657600160003373ffffffffffffffffffffffffffffffffffffffff1673ffffffffffffffffffffffffffffffffffffffff1681526020019081526020016000208054806001018281610ff59190611a04565b9160005260206000209001600085909190916101000a81548173ffffffffffffffffffffffffffffffffffffffff021916908373ffffffffffffffffffffffffffffffffffffffff16021790555050600160008473ffffffffffffffffffffffffffffffffffffffff1673ffffffffffffffffffffffffffffffffffffffff16815260200190815260200160002080548060010182816110959190611a04565b9160005260206000209001600033909190916101000a81548173ffffffffffffffffffffffffffffffffffffffff021916908373ffffffffffffffffffffffffffffffffffffffff160217905550506000803373ffffffffffffffffffffffffffffffffffffffff1673ffffffffffffffffffffffffffffffffffffffff1681526020019081526020016000208181548110151561112f57fe5b906000526020600020900160006101000a81549073ffffffffffffffffffffffffffffffffffffffff021916905560019150611178565b8080600101915050610ead565b600091505b50919050565b60006002600083600019166000191681526020019081526020016000206000815480929190600101919050555060019050919050565b6111bc6119f0565b600580548060200260200160405190810160405280929190818152602001828054801561123e57602002820191906000526020600020905b8160009054906101000a900473ffffffffffffffffffffffffffffffffffffffff1673ffffffffffffffffffffffffffffffffffffffff16815260200190600101908083116111f4575b5050505050905090565b600081600060010281600019161415151561126257600080fd5b6000600102600460003373ffffffffffffffffffffffffffffffffffffffff1673ffffffffffffffffffffffffffffffffffffffff1681526020019081526020016000206000015460001916141515156112bb57600080fd5b6000600102600460003373ffffffffffffffffffffffffffffffffffffffff1673ffffffffffffffffffffffffffffffffffffffff16815260200190815260200160002060000154600019161415156113a35782600460003373ffffffffffffffffffffffffffffffffffffffff1673ffffffffffffffffffffffffffffffffffffffff1681526020019081526020016000206000018160001916905550600460003373ffffffffffffffffffffffffffffffffffffffff1673ffffffffffffffffffffffffffffffffffffffff1681526020019081526020016000206000015491506113a4565b5b50919050565b6000600360008360001916600019168152602001908152602001600020600081548092919060019003919050555060019050919050565b6000600360008360001916600019168152602001908152602001600020549050919050565b60058181548110151561141557fe5b90600052602060002090016000915054906101000a900473ffffffffffffffffffffffffffffffffffffffff1681565b61144d611a30565b600460003373ffffffffffffffffffffffffffffffffffffffff1673ffffffffffffffffffffffffffffffffffffffff1681526020019081526020016000206002018054806020026020016040519081016040528092919081815260200182805480156114dd57602002820191906000526020600020905b815460001916815260200190600101908083116114c5575b5050505050905090565b600080600102600460003373ffffffffffffffffffffffffffffffffffffffff1673ffffffffffffffffffffffffffffffffffffffff16815260200190815260200160002060000154600019161415151561154157600080fd5b600460003373ffffffffffffffffffffffffffffffffffffffff1673ffffffffffffffffffffffffffffffffffffffff16815260200190815260200160002060000154905090565b6000600460008373ffffffffffffffffffffffffffffffffffffffff1673ffffffffffffffffffffffffffffffffffffffff168152602001908152602001600020600001549050919050565b60008060011515831515141561172357600090505b6001600460003373ffffffffffffffffffffffffffffffffffffffff1673ffffffffffffffffffffffffffffffffffffffff1681526020019081526020016000206002018054905003811015611722578360001916600460003373ffffffffffffffffffffffffffffffffffffffff1673ffffffffffffffffffffffffffffffffffffffff1681526020019081526020016000206002018281548110151561168e57fe5b906000526020600020900154600019161415611715576116ad84610b7c565b50600460003373ffffffffffffffffffffffffffffffffffffffff1673ffffffffffffffffffffffffffffffffffffffff168152602001908152602001600020600201818154811015156116fd57fe5b906000526020600020900160009055600191506117a1565b80806001019150506115ea565b5b61172c8461117e565b50600460003373ffffffffffffffffffffffffffffffffffffffff1673ffffffffffffffffffffffffffffffffffffffff168152602001908152602001600020600201805480600101828161178191906119c4565b916000526020600020900160008690919091509060001916905550600191505b5092915050565b6117b06119f0565b6000803373ffffffffffffffffffffffffffffffffffffffff1673ffffffffffffffffffffffffffffffffffffffff16815260200190815260200160002080548060200260200160405190810160405280929190818152602001828054801561186e57602002820191906000526020600020905b8160009054906101000a900473ffffffffffffffffffffffffffffffffffffffff1673ffffffffffffffffffffffffffffffffffffffff1681526020019060010190808311611824575b5050505050905090565b60008060008373ffffffffffffffffffffffffffffffffffffffff1673ffffffffffffffffffffffffffffffffffffffff16815260200190815260200160002080548060010182816118ca9190611a04565b9160005260206000209001600033909190916101000a81548173ffffffffffffffffffffffffffffffffffffffff021916908373ffffffffffffffffffffffffffffffffffffffff1602179055505060019050919050565b61192a611a30565b600460003373ffffffffffffffffffffffffffffffffffffffff1673ffffffffffffffffffffffffffffffffffffffff1681526020019081526020016000206001018054806020026020016040519081016040528092919081815260200182805480156119ba57602002820191906000526020600020905b815460001916815260200190600101908083116119a2575b5050505050905090565b8154818355818115116119eb578183600052602060002091820191016119ea9190611a44565b5b505050565b602060405190810160405280600081525090565b815481835581811511611a2b57818360005260206000209182019101611a2a9190611a69565b5b505050565b602060405190810160405280600081525090565b611a6691905b80821115611a62576000816000905550600101611a4a565b5090565b90565b611a8b91905b80821115611a87576000816000905550600101611a6f565b5090565b905600a165627a7a7230582076ca9c5ffe74f9dbe83944dff1ea2ece475e3e13b56d4589495dcfb58a31d1880029",
  "source": "pragma solidity ^0.4.2;\n\n/* import './zeppelin/lifecycle/Killable.sol'; */\nimport './Notification.sol';\nimport './BusinessStats.sol';\n/* contract Authentication is Killable { */\ncontract Authentication is Notification, BusinessStats {\n  struct User {\n    bytes32 name;\n    bytes32[] bookmarks;\n    bytes32[] likes;\n    bytes32[] claims;\n    address[] friends;\n  }\n\n  mapping (address => User) private users;\n  address[] public people;\n  uint private id; // Stores user id temporarily\n\n  modifier onlyExistingUser {\n    // Check if user exists or terminate\n\n    require(!(users[msg.sender].name == 0x0));\n    _;\n  }\n\n  modifier onlyValidName(bytes32 name) {\n    // Only valid names allowed\n\n    require(!(name == 0x0));\n    _;\n  }\n\n  function login() constant public onlyExistingUser returns (bytes32) {\n    return (users[msg.sender].name);\n  }\n\n  function signup(bytes32 name) public payable onlyValidName(name) returns (bytes32) {\n    // Check if user exists.\n    // If yes, return user name.\n    // If no, check if name was sent.\n    // If yes, create and return user.\n\n    if (users[msg.sender].name == 0x0)\n    {\n        users[msg.sender].name = name;\n        people.push(msg.sender);\n        return (users[msg.sender].name);\n    }\n\n    return (users[msg.sender].name);\n  }\n\n  function GetPeople() public constant returns(address[]) {\n    return people;\n  }\n\n  function GetName(address usraddr) public constant returns(bytes32) {\n    return users[usraddr].name;\n  }\n\n  function update(bytes32 name) public payable onlyValidName(name) onlyExistingUser returns (bytes32) {\n    // Update user name.\n\n    if (users[msg.sender].name != 0x0)\n    {\n        users[msg.sender].name = name;\n\n        return (users[msg.sender].name);\n    }\n  }\n\n  function AddBookmark(bytes32 business_id, bool un) public payable returns(bool) {\n    // remove from bookmarks\n    if (un == true) {\n      for(uint i=0; i<users[msg.sender].bookmarks.length-1; i++) {\n        if(users[msg.sender].bookmarks[i] == business_id) {\n          DecrementBookmarkCount(business_id);\n          delete users[msg.sender].bookmarks[i];\n          return true;\n        }\n      }\n    }\n\n    IncrementBookmarkCount(business_id);\n    users[msg.sender].bookmarks.push(business_id);\n    return true;\n  }\n\n  function GetBookmarks() public constant returns(bytes32[]) {\n    return users[msg.sender].bookmarks;\n  }\n\n  function AddLikes(bytes32 business_id, bool un) public payable returns(bool) {\n    // remove from likes\n    if (un == true) {\n      for(uint i=0; i<users[msg.sender].likes.length-1; i++) {\n        if(users[msg.sender].likes[i] == business_id) {\n          DecrementLikeCount(business_id);\n          delete users[msg.sender].likes[i];\n          return true;\n        }\n      }\n    }\n\n    IncrementLikeCount(business_id);\n    users[msg.sender].likes.push(business_id);\n    return true;\n  }\n\n  function GetLikes() public constant returns(bytes32[]) {\n    return users[msg.sender].likes;\n  }\n\n  function ClaimBusiness(bytes32 business_id) public payable returns(bool) {\n    users[msg.sender].claims.push(business_id);\n    return true;\n  }\n\n  function GetClaims() public constant returns(bytes32[]) {\n    return users[msg.sender].claims;\n  }\n}\n",
  "sourcePath": "C:\\Users\\mpales\\Documents\\github\\solidity-react-auth\\contracts\\Authentication.sol",
  "compiler": {
    "name": "solc",
    "version": "0.4.18+commit.9cf6e910.Emscripten.clang"
  },
  "schemaVersion": "1.0.1",
  "updatedAt": "2017-12-28T02:37:06.426Z"
}