{
  "contractName": "Authentication",
  "abi": [
    {
      "constant": true,
      "inputs": [
        {
          "name": "bizID",
          "type": "bytes32"
        }
      ],
      "name": "GetLikeCount",
      "outputs": [
        {
          "name": "",
          "type": "uint256"
        }
      ],
      "payable": false,
      "stateMutability": "view",
      "type": "function"
    },
    {
      "constant": true,
      "inputs": [],
      "name": "GetClaimed",
      "outputs": [
        {
          "name": "",
          "type": "bytes32[]"
        }
      ],
      "payable": false,
      "stateMutability": "view",
      "type": "function"
    },
    {
      "constant": false,
      "inputs": [
        {
          "name": "business_id",
          "type": "bytes32"
        }
      ],
      "name": "ClaimBusiness",
      "outputs": [
        {
          "name": "",
          "type": "bool"
        }
      ],
      "payable": true,
      "stateMutability": "payable",
      "type": "function"
    },
    {
      "constant": true,
      "inputs": [],
      "name": "GetFriends",
      "outputs": [
        {
          "name": "",
          "type": "address[]"
        }
      ],
      "payable": false,
      "stateMutability": "view",
      "type": "function"
    },
    {
      "constant": false,
      "inputs": [
        {
          "name": "bizID",
          "type": "bytes32"
        }
      ],
      "name": "IncrementBookmarkCount",
      "outputs": [
        {
          "name": "",
          "type": "bool"
        }
      ],
      "payable": true,
      "stateMutability": "payable",
      "type": "function"
    },
    {
      "constant": false,
      "inputs": [
        {
          "name": "business_id",
          "type": "bytes32"
        },
        {
          "name": "un",
          "type": "bool"
        }
      ],
      "name": "AddBookmark",
      "outputs": [
        {
          "name": "",
          "type": "bool"
        }
      ],
      "payable": true,
      "stateMutability": "payable",
      "type": "function"
    },
    {
      "constant": true,
      "inputs": [],
      "name": "GetFriendRequestCount",
      "outputs": [
        {
          "name": "",
          "type": "uint256"
        }
      ],
      "payable": false,
      "stateMutability": "view",
      "type": "function"
    },
    {
      "constant": false,
      "inputs": [
        {
          "name": "bizID",
          "type": "bytes32"
        }
      ],
      "name": "DecrementLikeCount",
      "outputs": [
        {
          "name": "",
          "type": "bool"
        }
      ],
      "payable": true,
      "stateMutability": "payable",
      "type": "function"
    },
    {
      "constant": false,
      "inputs": [
        {
          "name": "name",
          "type": "bytes32"
        }
      ],
      "name": "signup",
      "outputs": [
        {
          "name": "",
          "type": "bytes32"
        }
      ],
      "payable": true,
      "stateMutability": "payable",
      "type": "function"
    },
    {
      "constant": true,
      "inputs": [],
      "name": "GetClaims",
      "outputs": [
        {
          "name": "",
          "type": "bytes32[]"
        }
      ],
      "payable": false,
      "stateMutability": "view",
      "type": "function"
    },
    {
      "constant": false,
      "inputs": [
        {
          "name": "from",
          "type": "address"
        }
      ],
      "name": "AcceptFriendRequest",
      "outputs": [
        {
          "name": "",
          "type": "bool"
        }
      ],
      "payable": true,
      "stateMutability": "payable",
      "type": "function"
    },
    {
      "constant": false,
      "inputs": [
        {
          "name": "bizID",
          "type": "bytes32"
        }
      ],
      "name": "IncrementLikeCount",
      "outputs": [
        {
          "name": "",
          "type": "bool"
        }
      ],
      "payable": true,
      "stateMutability": "payable",
      "type": "function"
    },
    {
      "constant": true,
      "inputs": [],
      "name": "GetPeople",
      "outputs": [
        {
          "name": "",
          "type": "address[]"
        }
      ],
      "payable": false,
      "stateMutability": "view",
      "type": "function"
    },
    {
      "constant": false,
      "inputs": [
        {
          "name": "name",
          "type": "bytes32"
        }
      ],
      "name": "update",
      "outputs": [
        {
          "name": "",
          "type": "bytes32"
        }
      ],
      "payable": true,
      "stateMutability": "payable",
      "type": "function"
    },
    {
      "constant": false,
      "inputs": [
        {
          "name": "bizID",
          "type": "bytes32"
        }
      ],
      "name": "DecrementBookmarkCount",
      "outputs": [
        {
          "name": "",
          "type": "bool"
        }
      ],
      "payable": true,
      "stateMutability": "payable",
      "type": "function"
    },
    {
      "constant": true,
      "inputs": [
        {
          "name": "bizID",
          "type": "bytes32"
        }
      ],
      "name": "GetBookmarkCount",
      "outputs": [
        {
          "name": "",
          "type": "uint256"
        }
      ],
      "payable": false,
      "stateMutability": "view",
      "type": "function"
    },
    {
      "constant": true,
      "inputs": [
        {
          "name": "",
          "type": "uint256"
        }
      ],
      "name": "people",
      "outputs": [
        {
          "name": "",
          "type": "address"
        }
      ],
      "payable": false,
      "stateMutability": "view",
      "type": "function"
    },
    {
      "constant": true,
      "inputs": [],
      "name": "GetLikes",
      "outputs": [
        {
          "name": "",
          "type": "bytes32[]"
        }
      ],
      "payable": false,
      "stateMutability": "view",
      "type": "function"
    },
    {
      "constant": true,
      "inputs": [],
      "name": "login",
      "outputs": [
        {
          "name": "",
          "type": "bytes32"
        }
      ],
      "payable": false,
      "stateMutability": "view",
      "type": "function"
    },
    {
      "constant": false,
      "inputs": [
        {
          "name": "bizID",
          "type": "bytes32"
        }
      ],
      "name": "AddtoClaimed",
      "outputs": [
        {
          "name": "",
          "type": "bool"
        }
      ],
      "payable": true,
      "stateMutability": "payable",
      "type": "function"
    },
    {
      "constant": true,
      "inputs": [
        {
          "name": "usraddr",
          "type": "address"
        }
      ],
      "name": "GetName",
      "outputs": [
        {
          "name": "",
          "type": "bytes32"
        }
      ],
      "payable": false,
      "stateMutability": "view",
      "type": "function"
    },
    {
      "constant": false,
      "inputs": [
        {
          "name": "business_id",
          "type": "bytes32"
        },
        {
          "name": "un",
          "type": "bool"
        }
      ],
      "name": "AddLikes",
      "outputs": [
        {
          "name": "",
          "type": "bool"
        }
      ],
      "payable": true,
      "stateMutability": "payable",
      "type": "function"
    },
    {
      "constant": true,
      "inputs": [],
      "name": "GetFriendRequests",
      "outputs": [
        {
          "name": "",
          "type": "address[]"
        }
      ],
      "payable": false,
      "stateMutability": "view",
      "type": "function"
    },
    {
      "constant": false,
      "inputs": [
        {
          "name": "to",
          "type": "address"
        }
      ],
      "name": "SendFriendRequest",
      "outputs": [
        {
          "name": "",
          "type": "bool"
        }
      ],
      "payable": true,
      "stateMutability": "payable",
      "type": "function"
    },
    {
      "constant": true,
      "inputs": [],
      "name": "GetBookmarks",
      "outputs": [
        {
          "name": "",
          "type": "bytes32[]"
        }
      ],
      "payable": false,
      "stateMutability": "view",
      "type": "function"
    },
    {
      "constant": true,
      "inputs": [
        {
          "name": "bizID",
          "type": "bytes32"
        }
      ],
      "name": "GetBusinessDetails",
      "outputs": [
        {
          "name": "",
          "type": "uint256"
        },
        {
          "name": "",
          "type": "uint256"
        }
      ],
      "payable": false,
      "stateMutability": "view",
      "type": "function"
    }
  ],
  "bytecode": "0x6060604052341561000f57600080fd5b611d778061001e6000396000f300606060405260043610610154576000357c0100000000000000000000000000000000000000000000000000000000900463ffffffff168063172cabdf14610159578063179b761f146101945780631d8e3f93146101fe5780632e9adba21461023257806351afc4ae1461029c57806352f4cdf0146102d0578063551f9be01461030f5780635bd9ca5a146103385780635c1397de1461036c5780635c6571d8146103a45780636b2a638a1461040e5780636eca444114610454578063740ce6cf146104885780638b147245146104f257806391686c651461052a578063916da61a1461055e5780639e7a13ad14610599578063a79443c5146105fc578063b34e97e814610666578063c5a5e5e314610697578063d3a72ea1146106cb578063d9da9e0814610720578063db7dabda1461075f578063e3cc8214146107c9578063f5d7fa2f1461080f578063f6e56f8c14610879575b600080fd5b341561016457600080fd5b61017e6004808035600019169060200190919050506108bb565b6040518082815260200191505060405180910390f35b341561019f57600080fd5b6101a76108e3565b6040518080602001828103825283818151815260200191508051906020019060200280838360005b838110156101ea5780820151818401526020810190506101cf565b505050509050019250505060405180910390f35b610218600480803560001916906020019091905050610945565b604051808215151515815260200191505060405180910390f35b341561023d57600080fd5b6102456109c9565b6040518080602001828103825283818151815260200191508051906020019060200280838360005b8381101561028857808201518184015260208101905061026d565b505050509050019250505060405180910390f35b6102b6600480803560001916906020019091905050610a9c565b604051808215151515815260200191505060405180910390f35b6102f56004808035600019169060200190919080351515906020019091905050610ad5565b604051808215151515815260200191505060405180910390f35b341561031a57600080fd5b610322610ca8565b6040518082815260200191505060405180910390f35b610352600480803560001916906020019091905050610cf1565b604051808215151515815260200191505060405180910390f35b610386600480803560001916906020019091905050610d2b565b60405180826000191660001916815260200191505060405180910390f35b34156103af57600080fd5b6103b7610edb565b6040518080602001828103825283818151815260200191508051906020019060200280838360005b838110156103fa5780820151818401526020810190506103df565b505050509050019250505060405180910390f35b61043a600480803573ffffffffffffffffffffffffffffffffffffffff16906020019091905050610f7d565b604051808215151515815260200191505060405180910390f35b61046e600480803560001916906020019091905050611357565b604051808215151515815260200191505060405180910390f35b341561049357600080fd5b61049b611390565b6040518080602001828103825283818151815260200191508051906020019060200280838360005b838110156104de5780820151818401526020810190506104c3565b505050509050019250505060405180910390f35b61050c600480803560001916906020019091905050611424565b60405180826000191660001916815260200191505060405180910390f35b610544600480803560001916906020019091905050611586565b604051808215151515815260200191505060405180910390f35b341561056957600080fd5b6105836004808035600019169060200190919050506115c0565b6040518082815260200191505060405180910390f35b34156105a457600080fd5b6105ba60048080359060200190919050506115e8565b604051808273ffffffffffffffffffffffffffffffffffffffff1673ffffffffffffffffffffffffffffffffffffffff16815260200191505060405180910390f35b341561060757600080fd5b61060f611627565b6040518080602001828103825283818151815260200191508051906020019060200280838360005b83811015610652578082015181840152602081019050610637565b505050509050019250505060405180910390f35b341561067157600080fd5b6106796116c9565b60405180826000191660001916815260200191505060405180910390f35b6106b160048080356000191690602001909190505061176b565b604051808215151515815260200191505060405180910390f35b34156106d657600080fd5b610702600480803573ffffffffffffffffffffffffffffffffffffffff169060200190919050506117a5565b60405180826000191660001916815260200191505060405180910390f35b61074560048080356000191690602001909190803515159060200190919050506117f1565b604051808215151515815260200191505060405180910390f35b341561076a57600080fd5b6107726119c4565b6040518080602001828103825283818151815260200191508051906020019060200280838360005b838110156107b557808201518184015260208101905061079a565b505050509050019250505060405180910390f35b6107f5600480803573ffffffffffffffffffffffffffffffffffffffff16906020019091905050611a97565b604051808215151515815260200191505060405180910390f35b341561081a57600080fd5b610822611b95565b6040518080602001828103825283818151815260200191508051906020019060200280838360005b8381101561086557808201518184015260208101905061084a565b505050509050019250505060405180910390f35b341561088457600080fd5b61089e600480803560001916906020019091905050611c37565b604051808381526020018281526020019250505060405180910390f35b6000600160008360001916600019168152602001908152602001600020600101549050919050565b6108eb611c81565b600280548060200260200160405190810160405280929190818152602001828054801561093b57602002820191906000526020600020905b81546000191681526020019060010190808311610923575b5050505050905090565b60006109508261176b565b50600360003373ffffffffffffffffffffffffffffffffffffffff1673ffffffffffffffffffffffffffffffffffffffff16815260200190815260200160002060030180548060010182816109a59190611c95565b91600052602060002090016000849091909150906000191690555060019050919050565b6109d1611cc1565b6000803373ffffffffffffffffffffffffffffffffffffffff1673ffffffffffffffffffffffffffffffffffffffff168152602001908152602001600020600101805480602002602001604051908101604052809291908181526020018280548015610a9257602002820191906000526020600020905b8160009054906101000a900473ffffffffffffffffffffffffffffffffffffffff1673ffffffffffffffffffffffffffffffffffffffff1681526020019060010190808311610a48575b5050505050905090565b60006001600083600019166000191681526020019081526020016000206002016000815480929190600101919050555060019050919050565b600080600115158315151415610c2357600090505b6001600360003373ffffffffffffffffffffffffffffffffffffffff1673ffffffffffffffffffffffffffffffffffffffff1681526020019081526020016000206001018054905003811015610c22578360001916600360003373ffffffffffffffffffffffffffffffffffffffff1673ffffffffffffffffffffffffffffffffffffffff16815260200190815260200160002060010182815481101515610b8e57fe5b906000526020600020900154600019161415610c1557610bad84611586565b50600360003373ffffffffffffffffffffffffffffffffffffffff1673ffffffffffffffffffffffffffffffffffffffff16815260200190815260200160002060010181815481101515610bfd57fe5b90600052602060002090016000905560019150610ca1565b8080600101915050610aea565b5b610c2c84610a9c565b50600360003373ffffffffffffffffffffffffffffffffffffffff1673ffffffffffffffffffffffffffffffffffffffff1681526020019081526020016000206001018054806001018281610c819190611c95565b916000526020600020900160008690919091509060001916905550600191505b5092915050565b60008060003373ffffffffffffffffffffffffffffffffffffffff1673ffffffffffffffffffffffffffffffffffffffff16815260200190815260200160002060020154905090565b6000600160008360001916600019168152602001908152602001600020600101600081548092919060019003919050555060019050919050565b6000816000600102816000191614151515610d4557600080fd5b6000600102600360003373ffffffffffffffffffffffffffffffffffffffff1673ffffffffffffffffffffffffffffffffffffffff16815260200190815260200160002060000154600019161415610e8f5782600360003373ffffffffffffffffffffffffffffffffffffffff1673ffffffffffffffffffffffffffffffffffffffff168152602001908152602001600020600001816000191690555060048054806001018281610df69190611cd5565b9160005260206000209001600033909190916101000a81548173ffffffffffffffffffffffffffffffffffffffff021916908373ffffffffffffffffffffffffffffffffffffffff16021790555050600360003373ffffffffffffffffffffffffffffffffffffffff1673ffffffffffffffffffffffffffffffffffffffff168152602001908152602001600020600001549150610ed5565b600360003373ffffffffffffffffffffffffffffffffffffffff1673ffffffffffffffffffffffffffffffffffffffff1681526020019081526020016000206000015491505b50919050565b610ee3611c81565b600360003373ffffffffffffffffffffffffffffffffffffffff1673ffffffffffffffffffffffffffffffffffffffff168152602001908152602001600020600301805480602002602001604051908101604052809291908181526020018280548015610f7357602002820191906000526020600020905b81546000191681526020019060010190808311610f5b575b5050505050905090565b6000806000803373ffffffffffffffffffffffffffffffffffffffff1673ffffffffffffffffffffffffffffffffffffffff1681526020019081526020016000206001018054806001018281610fd39190611cd5565b9160005260206000209001600085909190916101000a81548173ffffffffffffffffffffffffffffffffffffffff021916908373ffffffffffffffffffffffffffffffffffffffff16021790555050600090505b60016000803373ffffffffffffffffffffffffffffffffffffffff1673ffffffffffffffffffffffffffffffffffffffff16815260200190815260200160002060000180549050038111151561134c578273ffffffffffffffffffffffffffffffffffffffff166000803373ffffffffffffffffffffffffffffffffffffffff1673ffffffffffffffffffffffffffffffffffffffff168152602001908152602001600020600001828154811015156110dc57fe5b906000526020600020900160009054906101000a900473ffffffffffffffffffffffffffffffffffffffff1673ffffffffffffffffffffffffffffffffffffffff16141561133f576000803373ffffffffffffffffffffffffffffffffffffffff1673ffffffffffffffffffffffffffffffffffffffff16815260200190815260200160002060010180548060010182816111779190611cd5565b9160005260206000209001600085909190916101000a81548173ffffffffffffffffffffffffffffffffffffffff021916908373ffffffffffffffffffffffffffffffffffffffff160217905550506000808473ffffffffffffffffffffffffffffffffffffffff1673ffffffffffffffffffffffffffffffffffffffff16815260200190815260200160002060010180548060010182816112199190611cd5565b9160005260206000209001600033909190916101000a81548173ffffffffffffffffffffffffffffffffffffffff021916908373ffffffffffffffffffffffffffffffffffffffff160217905550506000803373ffffffffffffffffffffffffffffffffffffffff1673ffffffffffffffffffffffffffffffffffffffff168152602001908152602001600020600001818154811015156112b657fe5b906000526020600020900160006101000a81549073ffffffffffffffffffffffffffffffffffffffff02191690556000803373ffffffffffffffffffffffffffffffffffffffff1673ffffffffffffffffffffffffffffffffffffffff168152602001908152602001600020600201600081548092919060019003919050555060019150611351565b8080600101915050611027565b600091505b50919050565b60006001600083600019166000191681526020019081526020016000206001016000815480929190600101919050555060019050919050565b611398611cc1565b600480548060200260200160405190810160405280929190818152602001828054801561141a57602002820191906000526020600020905b8160009054906101000a900473ffffffffffffffffffffffffffffffffffffffff1673ffffffffffffffffffffffffffffffffffffffff16815260200190600101908083116113d0575b5050505050905090565b600081600060010281600019161415151561143e57600080fd5b6000600102600360003373ffffffffffffffffffffffffffffffffffffffff1673ffffffffffffffffffffffffffffffffffffffff16815260200190815260200160002060000154600019161415151561149757600080fd5b6000600102600360003373ffffffffffffffffffffffffffffffffffffffff1673ffffffffffffffffffffffffffffffffffffffff168152602001908152602001600020600001546000191614151561157f5782600360003373ffffffffffffffffffffffffffffffffffffffff1673ffffffffffffffffffffffffffffffffffffffff1681526020019081526020016000206000018160001916905550600360003373ffffffffffffffffffffffffffffffffffffffff1673ffffffffffffffffffffffffffffffffffffffff168152602001908152602001600020600001549150611580565b5b50919050565b6000600160008360001916600019168152602001908152602001600020600201600081548092919060019003919050555060019050919050565b6000600160008360001916600019168152602001908152602001600020600201549050919050565b6004818154811015156115f757fe5b90600052602060002090016000915054906101000a900473ffffffffffffffffffffffffffffffffffffffff1681565b61162f611c81565b600360003373ffffffffffffffffffffffffffffffffffffffff1673ffffffffffffffffffffffffffffffffffffffff1681526020019081526020016000206002018054806020026020016040519081016040528092919081815260200182805480156116bf57602002820191906000526020600020905b815460001916815260200190600101908083116116a7575b5050505050905090565b600080600102600360003373ffffffffffffffffffffffffffffffffffffffff1673ffffffffffffffffffffffffffffffffffffffff16815260200190815260200160002060000154600019161415151561172357600080fd5b600360003373ffffffffffffffffffffffffffffffffffffffff1673ffffffffffffffffffffffffffffffffffffffff16815260200190815260200160002060000154905090565b6000600280548060010182816117819190611c95565b91600052602060002090016000849091909150906000191690555060019050919050565b6000600360008373ffffffffffffffffffffffffffffffffffffffff1673ffffffffffffffffffffffffffffffffffffffff168152602001908152602001600020600001549050919050565b60008060011515831515141561193f57600090505b6001600360003373ffffffffffffffffffffffffffffffffffffffff1673ffffffffffffffffffffffffffffffffffffffff168152602001908152602001600020600201805490500381101561193e578360001916600360003373ffffffffffffffffffffffffffffffffffffffff1673ffffffffffffffffffffffffffffffffffffffff168152602001908152602001600020600201828154811015156118aa57fe5b906000526020600020900154600019161415611931576118c984610cf1565b50600360003373ffffffffffffffffffffffffffffffffffffffff1673ffffffffffffffffffffffffffffffffffffffff1681526020019081526020016000206002018181548110151561191957fe5b906000526020600020900160009055600191506119bd565b8080600101915050611806565b5b61194884611357565b50600360003373ffffffffffffffffffffffffffffffffffffffff1673ffffffffffffffffffffffffffffffffffffffff168152602001908152602001600020600201805480600101828161199d9190611c95565b916000526020600020900160008690919091509060001916905550600191505b5092915050565b6119cc611cc1565b6000803373ffffffffffffffffffffffffffffffffffffffff1673ffffffffffffffffffffffffffffffffffffffff168152602001908152602001600020600001805480602002602001604051908101604052809291908181526020018280548015611a8d57602002820191906000526020600020905b8160009054906101000a900473ffffffffffffffffffffffffffffffffffffffff1673ffffffffffffffffffffffffffffffffffffffff1681526020019060010190808311611a43575b5050505050905090565b60008060008373ffffffffffffffffffffffffffffffffffffffff1673ffffffffffffffffffffffffffffffffffffffff1681526020019081526020016000206000018054806001018281611aec9190611cd5565b9160005260206000209001600033909190916101000a81548173ffffffffffffffffffffffffffffffffffffffff021916908373ffffffffffffffffffffffffffffffffffffffff160217905550506000808373ffffffffffffffffffffffffffffffffffffffff1673ffffffffffffffffffffffffffffffffffffffff1681526020019081526020016000206002016000815480929190600101919050555060019050919050565b611b9d611c81565b600360003373ffffffffffffffffffffffffffffffffffffffff1673ffffffffffffffffffffffffffffffffffffffff168152602001908152602001600020600101805480602002602001604051908101604052809291908181526020018280548015611c2d57602002820191906000526020600020905b81546000191681526020019060010190808311611c15575b5050505050905090565b600080600160008460001916600019168152602001908152602001600020600101546001600085600019166000191681526020019081526020016000206002015491509150915091565b602060405190810160405280600081525090565b815481835581811511611cbc57818360005260206000209182019101611cbb9190611d01565b5b505050565b602060405190810160405280600081525090565b815481835581811511611cfc57818360005260206000209182019101611cfb9190611d26565b5b505050565b611d2391905b80821115611d1f576000816000905550600101611d07565b5090565b90565b611d4891905b80821115611d44576000816000905550600101611d2c565b5090565b905600a165627a7a72305820d8e8d8f27d0a7e9d9f0f69d1a309078f42dc496cb76c8a22112cc00419506c9a0029",
  "source": "pragma solidity ^0.4.2;\n\n/* import './zeppelin/lifecycle/Killable.sol'; */\nimport './Notification.sol';\nimport './Business.sol';\n/* contract Authentication is Killable { */\ncontract Authentication is Notification, Business {\n  struct User {\n    bytes32 name;\n    bytes32[] bookmarks;\n    bytes32[] likes;\n    bytes32[] claims;\n    address[] friends;\n  }\n\n  mapping (address => User) private users;\n  address[] public people;\n  uint private id; // Stores user id temporarily\n\n  modifier onlyExistingUser {\n    // Check if user exists or terminate\n\n    require(!(users[msg.sender].name == 0x0));\n    _;\n  }\n\n  modifier onlyValidName(bytes32 name) {\n    // Only valid names allowed\n\n    require(!(name == 0x0));\n    _;\n  }\n\n  function login() constant public onlyExistingUser returns (bytes32) {\n    return (users[msg.sender].name);\n  }\n\n  function signup(bytes32 name) public payable onlyValidName(name) returns (bytes32) {\n    // Check if user exists.\n    // If yes, return user name.\n    // If no, check if name was sent.\n    // If yes, create and return user.\n\n    if (users[msg.sender].name == 0x0)\n    {\n        users[msg.sender].name = name;\n        people.push(msg.sender);\n        return (users[msg.sender].name);\n    }\n\n    return (users[msg.sender].name);\n  }\n\n  function GetPeople() public constant returns(address[]) {\n    return people;\n  }\n\n  function GetName(address usraddr) public constant returns(bytes32) {\n    return users[usraddr].name;\n  }\n\n  function update(bytes32 name) public payable onlyValidName(name) onlyExistingUser returns (bytes32) {\n    // Update user name.\n\n    if (users[msg.sender].name != 0x0)\n    {\n        users[msg.sender].name = name;\n\n        return (users[msg.sender].name);\n    }\n  }\n\n  function AddBookmark(bytes32 business_id, bool un) public payable returns(bool) {\n    // remove from bookmarks\n    if (un == true) {\n      for(uint i=0; i<users[msg.sender].bookmarks.length-1; i++) {\n        if(users[msg.sender].bookmarks[i] == business_id) {\n          DecrementBookmarkCount(business_id);\n          delete users[msg.sender].bookmarks[i];\n          return true;\n        }\n      }\n    }\n\n    IncrementBookmarkCount(business_id);\n    users[msg.sender].bookmarks.push(business_id);\n    return true;\n  }\n\n  function GetBookmarks() public constant returns(bytes32[]) {\n    return users[msg.sender].bookmarks;\n  }\n\n  function AddLikes(bytes32 business_id, bool un) public payable returns(bool) {\n    // remove from likes\n    if (un == true) {\n      for(uint i=0; i<users[msg.sender].likes.length-1; i++) {\n        if(users[msg.sender].likes[i] == business_id) {\n          DecrementLikeCount(business_id);\n          delete users[msg.sender].likes[i];\n          return true;\n        }\n      }\n    }\n\n    IncrementLikeCount(business_id);\n    users[msg.sender].likes.push(business_id);\n    return true;\n  }\n\n  function GetLikes() public constant returns(bytes32[]) {\n    return users[msg.sender].likes;\n  }\n\n  function ClaimBusiness(bytes32 business_id) public payable returns(bool) {\n\t\tAddtoClaimed(business_id);\n    users[msg.sender].claims.push(business_id);\n    return true;\n  }\n\n  function GetClaims() public constant returns(bytes32[]) {\n    return users[msg.sender].claims;\n  }\n}\n",
  "sourcePath": "/home/chael/Documents/ethereum/solidity-react-auth/contracts/Authentication.sol",
  "compiler": {
    "name": "solc",
    "version": "0.4.18+commit.9cf6e910.Emscripten.clang"
  },
  "schemaVersion": "1.0.1",
  "updatedAt": "2017-12-28T11:03:32.593Z"
}