{
  "contractName": "Authentication",
  "abi": [
    {
      "constant": false,
      "inputs": [
        {
          "name": "business_id",
          "type": "bytes32"
        }
      ],
      "name": "ClaimBusiness",
      "outputs": [
        {
          "name": "",
          "type": "bool"
        }
      ],
      "payable": true,
      "stateMutability": "payable",
      "type": "function"
    },
    {
      "constant": false,
      "inputs": [
        {
          "name": "business_id",
          "type": "bytes32"
        },
        {
          "name": "un",
          "type": "bool"
        }
      ],
      "name": "AddBookmark",
      "outputs": [
        {
          "name": "",
          "type": "bool"
        }
      ],
      "payable": true,
      "stateMutability": "payable",
      "type": "function"
    },
    {
      "constant": false,
      "inputs": [
        {
          "name": "name",
          "type": "bytes32"
        }
      ],
      "name": "signup",
      "outputs": [
        {
          "name": "",
          "type": "bytes32"
        }
      ],
      "payable": true,
      "stateMutability": "payable",
      "type": "function"
    },
    {
      "constant": true,
      "inputs": [],
      "name": "GetClaims",
      "outputs": [
        {
          "name": "",
          "type": "bytes32[]"
        }
      ],
      "payable": false,
      "stateMutability": "view",
      "type": "function"
    },
    {
      "constant": false,
      "inputs": [
        {
          "name": "sender",
          "type": "address"
        }
      ],
      "name": "AcceptFriendRequest",
      "outputs": [
        {
          "name": "",
          "type": "bool"
        }
      ],
      "payable": true,
      "stateMutability": "payable",
      "type": "function"
    },
    {
      "constant": true,
      "inputs": [],
      "name": "GetPeople",
      "outputs": [
        {
          "name": "",
          "type": "address[]"
        }
      ],
      "payable": false,
      "stateMutability": "view",
      "type": "function"
    },
    {
      "constant": true,
      "inputs": [
        {
          "name": "",
          "type": "uint256"
        }
      ],
      "name": "requests",
      "outputs": [
        {
          "name": "",
          "type": "address"
        }
      ],
      "payable": false,
      "stateMutability": "view",
      "type": "function"
    },
    {
      "constant": false,
      "inputs": [
        {
          "name": "name",
          "type": "bytes32"
        }
      ],
      "name": "update",
      "outputs": [
        {
          "name": "",
          "type": "bytes32"
        }
      ],
      "payable": true,
      "stateMutability": "payable",
      "type": "function"
    },
    {
      "constant": true,
      "inputs": [
        {
          "name": "",
          "type": "uint256"
        }
      ],
      "name": "people",
      "outputs": [
        {
          "name": "",
          "type": "address"
        }
      ],
      "payable": false,
      "stateMutability": "view",
      "type": "function"
    },
    {
      "constant": true,
      "inputs": [],
      "name": "GetLikes",
      "outputs": [
        {
          "name": "",
          "type": "bytes32[]"
        }
      ],
      "payable": false,
      "stateMutability": "view",
      "type": "function"
    },
    {
      "constant": true,
      "inputs": [],
      "name": "login",
      "outputs": [
        {
          "name": "",
          "type": "bytes32"
        }
      ],
      "payable": false,
      "stateMutability": "view",
      "type": "function"
    },
    {
      "constant": true,
      "inputs": [
        {
          "name": "usraddr",
          "type": "address"
        }
      ],
      "name": "GetName",
      "outputs": [
        {
          "name": "",
          "type": "bytes32"
        }
      ],
      "payable": false,
      "stateMutability": "view",
      "type": "function"
    },
    {
      "constant": false,
      "inputs": [
        {
          "name": "business_id",
          "type": "bytes32"
        },
        {
          "name": "un",
          "type": "bool"
        }
      ],
      "name": "AddLikes",
      "outputs": [
        {
          "name": "",
          "type": "bool"
        }
      ],
      "payable": true,
      "stateMutability": "payable",
      "type": "function"
    },
    {
      "constant": false,
      "inputs": [],
      "name": "GetFriendRequests",
      "outputs": [
        {
          "name": "",
          "type": "address[]"
        }
      ],
      "payable": false,
      "stateMutability": "nonpayable",
      "type": "function"
    },
    {
      "constant": false,
      "inputs": [
        {
          "name": "to",
          "type": "address"
        }
      ],
      "name": "SendFriendRequest",
      "outputs": [
        {
          "name": "",
          "type": "bool"
        }
      ],
      "payable": true,
      "stateMutability": "payable",
      "type": "function"
    },
    {
      "constant": true,
      "inputs": [],
      "name": "GetBookmarks",
      "outputs": [
        {
          "name": "",
          "type": "bytes32[]"
        }
      ],
      "payable": false,
      "stateMutability": "view",
      "type": "function"
    }
  ],
  "bytecode": "0x6060604052341561000f57600080fd5b6117368061001e6000396000f3006060604052600436106100e6576000357c0100000000000000000000000000000000000000000000000000000000900463ffffffff1680631d8e3f93146100eb57806352f4cdf01461011f5780635c1397de1461015e5780635c6571d8146101965780636b2a638a14610200578063740ce6cf1461024657806381d12c58146102b05780638b147245146103135780639e7a13ad1461034b578063a79443c5146103ae578063b34e97e814610418578063d3a72ea114610449578063d9da9e081461049e578063db7dabda146104dd578063e3cc821414610547578063f5d7fa2f1461058d575b600080fd5b6101056004808035600019169060200190919050506105f7565b604051808215151515815260200191505060405180910390f35b6101446004808035600019169060200190919080351515906020019091905050610671565b604051808215151515815260200191505060405180910390f35b610178600480803560001916906020019091905050610830565b60405180826000191660001916815260200191505060405180910390f35b34156101a157600080fd5b6101a96109e0565b6040518080602001828103825283818151815260200191508051906020019060200280838360005b838110156101ec5780820151818401526020810190506101d1565b505050509050019250505060405180910390f35b61022c600480803573ffffffffffffffffffffffffffffffffffffffff16906020019091905050610a82565b604051808215151515815260200191505060405180910390f35b341561025157600080fd5b610259610c14565b6040518080602001828103825283818151815260200191508051906020019060200280838360005b8381101561029c578082015181840152602081019050610281565b505050509050019250505060405180910390f35b34156102bb57600080fd5b6102d16004808035906020019091905050610ca8565b604051808273ffffffffffffffffffffffffffffffffffffffff1673ffffffffffffffffffffffffffffffffffffffff16815260200191505060405180910390f35b61032d600480803560001916906020019091905050610ce7565b60405180826000191660001916815260200191505060405180910390f35b341561035657600080fd5b61036c6004808035906020019091905050610e49565b604051808273ffffffffffffffffffffffffffffffffffffffff1673ffffffffffffffffffffffffffffffffffffffff16815260200191505060405180910390f35b34156103b957600080fd5b6103c1610e88565b6040518080602001828103825283818151815260200191508051906020019060200280838360005b838110156104045780820151818401526020810190506103e9565b505050509050019250505060405180910390f35b341561042357600080fd5b61042b610f2a565b60405180826000191660001916815260200191505060405180910390f35b341561045457600080fd5b610480600480803573ffffffffffffffffffffffffffffffffffffffff16906020019091905050610fcc565b60405180826000191660001916815260200191505060405180910390f35b6104c36004808035600019169060200190919080351515906020019091905050611018565b604051808215151515815260200191505060405180910390f35b34156104e857600080fd5b6104f06111d7565b6040518080602001828103825283818151815260200191508051906020019060200280838360005b83811015610533578082015181840152602081019050610518565b505050509050019250505060405180910390f35b610573600480803573ffffffffffffffffffffffffffffffffffffffff16906020019091905050611413565b604051808215151515815260200191505060405180910390f35b341561059857600080fd5b6105a0611518565b6040518080602001828103825283818151815260200191508051906020019060200280838360005b838110156105e35780820151818401526020810190506105c8565b505050509050019250505060405180910390f35b6000600360003373ffffffffffffffffffffffffffffffffffffffff1673ffffffffffffffffffffffffffffffffffffffff168152602001908152602001600020600301805480600101828161064d91906115ba565b91600052602060002090016000849091909150906000191690555060019050919050565b6000806001151583151514156107b557600090505b6001600360003373ffffffffffffffffffffffffffffffffffffffff1673ffffffffffffffffffffffffffffffffffffffff16815260200190815260200160002060010180549050038110156107b4578360001916600360003373ffffffffffffffffffffffffffffffffffffffff1673ffffffffffffffffffffffffffffffffffffffff1681526020019081526020016000206001018281548110151561072a57fe5b9060005260206000209001546000191614156107a757600360003373ffffffffffffffffffffffffffffffffffffffff1673ffffffffffffffffffffffffffffffffffffffff1681526020019081526020016000206001018181548110151561078f57fe5b90600052602060002090016000905560019150610829565b8080600101915050610686565b5b600360003373ffffffffffffffffffffffffffffffffffffffff1673ffffffffffffffffffffffffffffffffffffffff168152602001908152602001600020600101805480600101828161080991906115ba565b916000526020600020900160008690919091509060001916905550600191505b5092915050565b600081600060010281600019161415151561084a57600080fd5b6000600102600360003373ffffffffffffffffffffffffffffffffffffffff1673ffffffffffffffffffffffffffffffffffffffff168152602001908152602001600020600001546000191614156109945782600360003373ffffffffffffffffffffffffffffffffffffffff1673ffffffffffffffffffffffffffffffffffffffff1681526020019081526020016000206000018160001916905550600480548060010182816108fb91906115e6565b9160005260206000209001600033909190916101000a81548173ffffffffffffffffffffffffffffffffffffffff021916908373ffffffffffffffffffffffffffffffffffffffff16021790555050600360003373ffffffffffffffffffffffffffffffffffffffff1673ffffffffffffffffffffffffffffffffffffffff1681526020019081526020016000206000015491506109da565b600360003373ffffffffffffffffffffffffffffffffffffffff1673ffffffffffffffffffffffffffffffffffffffff1681526020019081526020016000206000015491505b50919050565b6109e8611612565b600360003373ffffffffffffffffffffffffffffffffffffffff1673ffffffffffffffffffffffffffffffffffffffff168152602001908152602001600020600301805480602002602001604051908101604052809291908181526020018280548015610a7857602002820191906000526020600020905b81546000191681526020019060010190808311610a60575b5050505050905090565b600080600090505b6000803373ffffffffffffffffffffffffffffffffffffffff1673ffffffffffffffffffffffffffffffffffffffff1681526020019081526020016000208054905081111515610c09578273ffffffffffffffffffffffffffffffffffffffff166000803373ffffffffffffffffffffffffffffffffffffffff1673ffffffffffffffffffffffffffffffffffffffff16815260200190815260200160002082815481101515610b3657fe5b906000526020600020900160000160009054906101000a900473ffffffffffffffffffffffffffffffffffffffff1673ffffffffffffffffffffffffffffffffffffffff161415610bfc5760016000803373ffffffffffffffffffffffffffffffffffffffff1673ffffffffffffffffffffffffffffffffffffffff16815260200190815260200160002082815481101515610bce57fe5b906000526020600020900160000160146101000a81548160ff02191690831515021790555060019150610c0e565b8080600101915050610a8a565b600091505b50919050565b610c1c611626565b6004805480602002602001604051908101604052809291908181526020018280548015610c9e57602002820191906000526020600020905b8160009054906101000a900473ffffffffffffffffffffffffffffffffffffffff1673ffffffffffffffffffffffffffffffffffffffff1681526020019060010190808311610c54575b5050505050905090565b600281815481101515610cb757fe5b90600052602060002090016000915054906101000a900473ffffffffffffffffffffffffffffffffffffffff1681565b6000816000600102816000191614151515610d0157600080fd5b6000600102600360003373ffffffffffffffffffffffffffffffffffffffff1673ffffffffffffffffffffffffffffffffffffffff168152602001908152602001600020600001546000191614151515610d5a57600080fd5b6000600102600360003373ffffffffffffffffffffffffffffffffffffffff1673ffffffffffffffffffffffffffffffffffffffff1681526020019081526020016000206000015460001916141515610e425782600360003373ffffffffffffffffffffffffffffffffffffffff1673ffffffffffffffffffffffffffffffffffffffff1681526020019081526020016000206000018160001916905550600360003373ffffffffffffffffffffffffffffffffffffffff1673ffffffffffffffffffffffffffffffffffffffff168152602001908152602001600020600001549150610e43565b5b50919050565b600481815481101515610e5857fe5b90600052602060002090016000915054906101000a900473ffffffffffffffffffffffffffffffffffffffff1681565b610e90611612565b600360003373ffffffffffffffffffffffffffffffffffffffff1673ffffffffffffffffffffffffffffffffffffffff168152602001908152602001600020600201805480602002602001604051908101604052809291908181526020018280548015610f2057602002820191906000526020600020905b81546000191681526020019060010190808311610f08575b5050505050905090565b600080600102600360003373ffffffffffffffffffffffffffffffffffffffff1673ffffffffffffffffffffffffffffffffffffffff168152602001908152602001600020600001546000191614151515610f8457600080fd5b600360003373ffffffffffffffffffffffffffffffffffffffff1673ffffffffffffffffffffffffffffffffffffffff16815260200190815260200160002060000154905090565b6000600360008373ffffffffffffffffffffffffffffffffffffffff1673ffffffffffffffffffffffffffffffffffffffff168152602001908152602001600020600001549050919050565b60008060011515831515141561115c57600090505b6001600360003373ffffffffffffffffffffffffffffffffffffffff1673ffffffffffffffffffffffffffffffffffffffff168152602001908152602001600020600201805490500381101561115b578360001916600360003373ffffffffffffffffffffffffffffffffffffffff1673ffffffffffffffffffffffffffffffffffffffff168152602001908152602001600020600201828154811015156110d157fe5b90600052602060002090015460001916141561114e57600360003373ffffffffffffffffffffffffffffffffffffffff1673ffffffffffffffffffffffffffffffffffffffff1681526020019081526020016000206002018181548110151561113657fe5b906000526020600020900160009055600191506111d0565b808060010191505061102d565b5b600360003373ffffffffffffffffffffffffffffffffffffffff1673ffffffffffffffffffffffffffffffffffffffff16815260200190815260200160002060020180548060010182816111b091906115ba565b916000526020600020900160008690919091509060001916905550600191505b5092915050565b6111df611626565b60008090505b6000803373ffffffffffffffffffffffffffffffffffffffff1673ffffffffffffffffffffffffffffffffffffffff1681526020019081526020016000208054905081111515611386576000803373ffffffffffffffffffffffffffffffffffffffff1673ffffffffffffffffffffffffffffffffffffffff1681526020019081526020016000208181548110151561127a57fe5b906000526020600020900160000160149054906101000a900460ff16151561137957600280548060010182816112b091906115e6565b916000526020600020900160008060003373ffffffffffffffffffffffffffffffffffffffff1673ffffffffffffffffffffffffffffffffffffffff1681526020019081526020016000208481548110151561130857fe5b906000526020600020900160000160009054906101000a900473ffffffffffffffffffffffffffffffffffffffff16909190916101000a81548173ffffffffffffffffffffffffffffffffffffffff021916908373ffffffffffffffffffffffffffffffffffffffff160217905550505b80806001019150506111e5565b600280548060200260200160405190810160405280929190818152602001828054801561140857602002820191906000526020600020905b8160009054906101000a900473ffffffffffffffffffffffffffffffffffffffff1673ffffffffffffffffffffffffffffffffffffffff16815260200190600101908083116113be575b505050505091505090565b60008060008373ffffffffffffffffffffffffffffffffffffffff1673ffffffffffffffffffffffffffffffffffffffff1681526020019081526020016000208054806001018281611465919061163a565b9160005260206000209001600060408051908101604052803373ffffffffffffffffffffffffffffffffffffffff16815260200160001515815250909190915060008201518160000160006101000a81548173ffffffffffffffffffffffffffffffffffffffff021916908373ffffffffffffffffffffffffffffffffffffffff16021790555060208201518160000160146101000a81548160ff02191690831515021790555050505060019050919050565b611520611612565b600360003373ffffffffffffffffffffffffffffffffffffffff1673ffffffffffffffffffffffffffffffffffffffff1681526020019081526020016000206001018054806020026020016040519081016040528092919081815260200182805480156115b057602002820191906000526020600020905b81546000191681526020019060010190808311611598575b5050505050905090565b8154818355818115116115e1578183600052602060002091820191016115e09190611666565b5b505050565b81548183558181151161160d5781836000526020600020918201910161160c919061168b565b5b505050565b602060405190810160405280600081525090565b602060405190810160405280600081525090565b8154818355818115116116615781836000526020600020918201910161166091906116b0565b5b505050565b61168891905b8082111561168457600081600090555060010161166c565b5090565b90565b6116ad91905b808211156116a9576000816000905550600101611691565b5090565b90565b61170791905b8082111561170357600080820160006101000a81549073ffffffffffffffffffffffffffffffffffffffff02191690556000820160146101000a81549060ff0219169055506001016116b6565b5090565b905600a165627a7a72305820f82ebe9684d031d463c5e387cc4f1cdabc40468c3add6891add359faa783a1d10029",
  "source": "pragma solidity ^0.4.2;\n\n/* import './zeppelin/lifecycle/Killable.sol'; */\nimport './Notification.sol';\n\n/* contract Authentication is Killable { */\ncontract Authentication is Notification {\n  struct User {\n    bytes32 name;\n    bytes32[] bookmarks;\n    bytes32[] likes;\n    bytes32[] claims;\n    address[] friends;\n  }\n\n  mapping (address => User) private users;\n  address[] public people;\n  uint private id; // Stores user id temporarily\n\n  modifier onlyExistingUser {\n    // Check if user exists or terminate\n\n    require(!(users[msg.sender].name == 0x0));\n    _;\n  }\n\n  modifier onlyValidName(bytes32 name) {\n    // Only valid names allowed\n\n    require(!(name == 0x0));\n    _;\n  }\n\n  function login() constant public onlyExistingUser returns (bytes32) {\n    return (users[msg.sender].name);\n  }\n\n  function signup(bytes32 name) public payable onlyValidName(name) returns (bytes32) {\n    // Check if user exists.\n    // If yes, return user name.\n    // If no, check if name was sent.\n    // If yes, create and return user.\n\n    if (users[msg.sender].name == 0x0)\n    {\n        users[msg.sender].name = name;\n        people.push(msg.sender);\n        return (users[msg.sender].name);\n    }\n\n    return (users[msg.sender].name);\n  }\n\n  function GetPeople() public constant returns(address[]) {\n    return people;\n  }\n\n  function GetName(address usraddr) public constant returns(bytes32) {\n    return users[usraddr].name;\n  }\n\n  function update(bytes32 name) public payable onlyValidName(name) onlyExistingUser returns (bytes32) {\n    // Update user name.\n\n    if (users[msg.sender].name != 0x0)\n    {\n        users[msg.sender].name = name;\n\n        return (users[msg.sender].name);\n    }\n  }\n\n  function AddBookmark(bytes32 business_id, bool un) public payable returns(bool) {\n    // remove from bookmarks\n    if (un == true) {\n      for(uint i=0; i<users[msg.sender].bookmarks.length-1; i++) {\n        if(users[msg.sender].bookmarks[i] == business_id) {\n          delete users[msg.sender].bookmarks[i];\n          return true;\n        }\n      }\n    }\n\n    users[msg.sender].bookmarks.push(business_id);\n    return true;\n  }\n\n  function GetBookmarks() public constant returns(bytes32[]) {\n    return users[msg.sender].bookmarks;\n  }\n\n  function AddLikes(bytes32 business_id, bool un) public payable returns(bool) {\n    // remove from likes\n    if (un == true) {\n      for(uint i=0; i<users[msg.sender].likes.length-1; i++) {\n        if(users[msg.sender].likes[i] == business_id) {\n          delete users[msg.sender].likes[i];\n          return true;\n        }\n      }\n    }\n\n    users[msg.sender].likes.push(business_id);\n    return true;\n  }\n\n  function GetLikes() public constant returns(bytes32[]) {\n    return users[msg.sender].likes;\n  }\n\n  function ClaimBusiness(bytes32 business_id) public payable returns(bool) {\n    users[msg.sender].claims.push(business_id);\n    return true;\n  }\n\n  function GetClaims() public constant returns(bytes32[]) {\n    return users[msg.sender].claims;\n  }\n}\n",
  "sourcePath": "C:\\Users\\mpales\\Documents\\ethereumpractice\\react-auth\\contracts\\Authentication.sol",
  "compiler": {
    "name": "solc",
    "version": "0.4.18+commit.9cf6e910.Emscripten.clang"
  },
  "schemaVersion": "1.0.1",
  "updatedAt": "2017-12-27T05:40:09.231Z"
}