{
  "contractName": "Business",
  "abi": [
    {
      "constant": true,
      "inputs": [
        {
          "name": "bizID",
          "type": "bytes32"
        }
      ],
      "name": "GetLikeCount",
      "outputs": [
        {
          "name": "",
          "type": "uint256"
        }
      ],
      "payable": false,
      "stateMutability": "view",
      "type": "function"
    },
    {
      "constant": true,
      "inputs": [],
      "name": "GetClaimed",
      "outputs": [
        {
          "name": "",
          "type": "bytes32[]"
        }
      ],
      "payable": false,
      "stateMutability": "view",
      "type": "function"
    },
    {
      "constant": false,
      "inputs": [
        {
          "name": "bizID",
          "type": "bytes32"
        }
      ],
      "name": "IncrementBookmarkCount",
      "outputs": [
        {
          "name": "",
          "type": "bool"
        }
      ],
      "payable": true,
      "stateMutability": "payable",
      "type": "function"
    },
    {
      "constant": false,
      "inputs": [
        {
          "name": "bizID",
          "type": "bytes32"
        }
      ],
      "name": "DecrementLikeCount",
      "outputs": [
        {
          "name": "",
          "type": "bool"
        }
      ],
      "payable": true,
      "stateMutability": "payable",
      "type": "function"
    },
    {
      "constant": false,
      "inputs": [
        {
          "name": "bizID",
          "type": "bytes32"
        }
      ],
      "name": "IncrementLikeCount",
      "outputs": [
        {
          "name": "",
          "type": "bool"
        }
      ],
      "payable": true,
      "stateMutability": "payable",
      "type": "function"
    },
    {
      "constant": false,
      "inputs": [
        {
          "name": "bizID",
          "type": "bytes32"
        }
      ],
      "name": "DecrementBookmarkCount",
      "outputs": [
        {
          "name": "",
          "type": "bool"
        }
      ],
      "payable": true,
      "stateMutability": "payable",
      "type": "function"
    },
    {
      "constant": true,
      "inputs": [
        {
          "name": "bizID",
          "type": "bytes32"
        }
      ],
      "name": "GetBookmarkCount",
      "outputs": [
        {
          "name": "",
          "type": "uint256"
        }
      ],
      "payable": false,
      "stateMutability": "view",
      "type": "function"
    },
    {
      "constant": false,
      "inputs": [
        {
          "name": "bizID",
          "type": "bytes32"
        }
      ],
      "name": "AddtoClaimed",
      "outputs": [
        {
          "name": "",
          "type": "bool"
        }
      ],
      "payable": true,
      "stateMutability": "payable",
      "type": "function"
    },
    {
      "constant": true,
      "inputs": [
        {
          "name": "bizID",
          "type": "bytes32"
        }
      ],
      "name": "GetBusinessDetails",
      "outputs": [
        {
          "name": "",
          "type": "uint256"
        },
        {
          "name": "",
          "type": "uint256"
        }
      ],
      "payable": false,
      "stateMutability": "view",
      "type": "function"
    }
  ],
  "bytecode": "0x6060604052341561000f57600080fd5b6105698061001e6000396000f300606060405260043610610099576000357c0100000000000000000000000000000000000000000000000000000000900463ffffffff168063172cabdf1461009e578063179b761f146100d957806351afc4ae146101435780635bd9ca5a146101775780636eca4441146101ab57806391686c65146101df578063916da61a14610213578063c5a5e5e31461024e578063f6e56f8c14610282575b600080fd5b34156100a957600080fd5b6100c36004808035600019169060200190919050506102c4565b6040518082815260200191505060405180910390f35b34156100e457600080fd5b6100ec6102eb565b6040518080602001828103825283818151815260200191508051906020019060200280838360005b8381101561012f578082015181840152602081019050610114565b505050509050019250505060405180910390f35b61015d60048080356000191690602001909190505061034d565b604051808215151515815260200191505060405180910390f35b610191600480803560001916906020019091905050610385565b604051808215151515815260200191505060405180910390f35b6101c56004808035600019169060200190919050506103be565b604051808215151515815260200191505060405180910390f35b6101f96004808035600019169060200190919050506103f6565b604051808215151515815260200191505060405180910390f35b341561021e57600080fd5b61023860048080356000191690602001909190505061042f565b6040518082815260200191505060405180910390f35b610268600480803560001916906020019091905050610456565b604051808215151515815260200191505060405180910390f35b341561028d57600080fd5b6102a7600480803560001916906020019091905050610490565b604051808381526020018281526020019250505060405180910390f35b60008060008360001916600019168152602001908152602001600020600101549050919050565b6102f36104d8565b600180548060200260200160405190810160405280929190818152602001828054801561034357602002820191906000526020600020905b8154600019168152602001906001019080831161032b575b5050505050905090565b600080600083600019166000191681526020019081526020016000206002016000815480929190600101919050555060019050919050565b60008060008360001916600019168152602001908152602001600020600101600081548092919060019003919050555060019050919050565b600080600083600019166000191681526020019081526020016000206001016000815480929190600101919050555060019050919050565b60008060008360001916600019168152602001908152602001600020600201600081548092919060019003919050555060019050919050565b60008060008360001916600019168152602001908152602001600020600201549050919050565b60006001805480600101828161046c91906104ec565b91600052602060002090016000849091909150906000191690555060019050919050565b60008060008084600019166000191681526020019081526020016000206001015460008085600019166000191681526020019081526020016000206002015491509150915091565b602060405190810160405280600081525090565b815481835581811511610513578183600052602060002091820191016105129190610518565b5b505050565b61053a91905b8082111561053657600081600090555060010161051e565b5090565b905600a165627a7a72305820633d53527655d1f4f7244783d672206a818e76253cb076bb335c6d25db02c4870029",
  "source": "pragma solidity ^0.4.2;\n\ncontract Business {\n  struct Details {\n    uint rating;\n    uint likescount;\n    uint bookmarkcount;\n    bool claimed;\n  }\n  mapping(bytes32 => Details) BusinessDetails;\n  bytes32[] claimedBusinesses;\n\n  function AddtoClaimed(bytes32 bizID) public payable returns(bool) {\n    claimedBusinesses.push(bizID);\n    return true;\n  }\n\n  function GetClaimed() public constant returns(bytes32[]) {\n    return claimedBusinesses;\n  }\n\n\tfunction GetBusinessDetails(bytes32 bizID) public constant returns(uint, uint) {\n\t\treturn (BusinessDetails[bizID].likescount, BusinessDetails[bizID].bookmarkcount);\n\t}\n\n  function IncrementLikeCount(bytes32 bizID) public payable returns(bool) {\n    BusinessDetails[bizID].likescount++;\n    return true;\n  }\n\n  function DecrementLikeCount(bytes32 bizID) public payable returns(bool) {\n    BusinessDetails[bizID].likescount--;\n    return true;\n  }\n\n  function GetLikeCount(bytes32 bizID) public constant returns(uint) {\n    return BusinessDetails[bizID].likescount;\n  }\n\n  function IncrementBookmarkCount(bytes32 bizID) public payable returns(bool) {\n    BusinessDetails[bizID].bookmarkcount++;\n    return true;\n  }\n\n  function DecrementBookmarkCount(bytes32 bizID) public payable returns(bool) {\n    BusinessDetails[bizID].bookmarkcount--;\n    return true;\n  }\n\n  function GetBookmarkCount(bytes32 bizID) public constant returns(uint) {\n    return BusinessDetails[bizID].bookmarkcount;\n  }\n}\n",
  "sourcePath": "/home/chael/Documents/ethereum/solidity-react-auth/contracts/Business.sol",
  "compiler": {
    "name": "solc",
    "version": "0.4.18+commit.9cf6e910.Emscripten.clang"
  },
  "schemaVersion": "1.0.1",
  "updatedAt": "2017-12-28T11:02:52.535Z"
}