{
  "contractName": "BusinessStats",
  "abi": [
    {
      "constant": true,
      "inputs": [
        {
          "name": "bizID",
          "type": "bytes32"
        }
      ],
      "name": "GetLikeCount",
      "outputs": [
        {
          "name": "",
          "type": "uint256"
        }
      ],
      "payable": false,
      "stateMutability": "view",
      "type": "function"
    },
    {
      "constant": false,
      "inputs": [
        {
          "name": "bizID",
          "type": "bytes32"
        }
      ],
      "name": "IncrementBookmarkCount",
      "outputs": [
        {
          "name": "",
          "type": "bool"
        }
      ],
      "payable": true,
      "stateMutability": "payable",
      "type": "function"
    },
    {
      "constant": false,
      "inputs": [
        {
          "name": "bizID",
          "type": "bytes32"
        }
      ],
      "name": "DecrementLikeCount",
      "outputs": [
        {
          "name": "",
          "type": "bool"
        }
      ],
      "payable": true,
      "stateMutability": "payable",
      "type": "function"
    },
    {
      "constant": false,
      "inputs": [
        {
          "name": "bizID",
          "type": "bytes32"
        }
      ],
      "name": "IncrementLikeCount",
      "outputs": [
        {
          "name": "",
          "type": "bool"
        }
      ],
      "payable": true,
      "stateMutability": "payable",
      "type": "function"
    },
    {
      "constant": false,
      "inputs": [
        {
          "name": "bizID",
          "type": "bytes32"
        }
      ],
      "name": "DecrementBookmarkCount",
      "outputs": [
        {
          "name": "",
          "type": "bool"
        }
      ],
      "payable": true,
      "stateMutability": "payable",
      "type": "function"
    },
    {
      "constant": true,
      "inputs": [
        {
          "name": "bizID",
          "type": "bytes32"
        }
      ],
      "name": "GetBookmarkCount",
      "outputs": [
        {
          "name": "",
          "type": "uint256"
        }
      ],
      "payable": false,
      "stateMutability": "view",
      "type": "function"
    }
  ],
  "bytecode": "0x6060604052341561000f57600080fd5b6103108061001e6000396000f300606060405260043610610078576000357c0100000000000000000000000000000000000000000000000000000000900463ffffffff168063172cabdf1461007d57806351afc4ae146100b85780635bd9ca5a146100ec5780636eca44411461012057806391686c6514610154578063916da61a14610188575b600080fd5b341561008857600080fd5b6100a26004808035600019169060200190919050506101c3565b6040518082815260200191505060405180910390f35b6100d26004808035600019169060200190919050506101e7565b604051808215151515815260200191505060405180910390f35b61010660048080356000191690602001909190505061021d565b604051808215151515815260200191505060405180910390f35b61013a600480803560001916906020019091905050610253565b604051808215151515815260200191505060405180910390f35b61016e600480803560001916906020019091905050610288565b604051808215151515815260200191505060405180910390f35b341561019357600080fd5b6101ad6004808035600019169060200190919050506102bf565b6040518082815260200191505060405180910390f35b60008060008360001916600019168152602001908152602001600020549050919050565b60006001600083600019166000191681526020019081526020016000206000815480929190600101919050555060019050919050565b60008060008360001916600019168152602001908152602001600020600081548092919060019003919050555060019050919050565b600080600083600019166000191681526020019081526020016000206000815480929190600101919050555060019050919050565b6000600160008360001916600019168152602001908152602001600020600081548092919060019003919050555060019050919050565b60006001600083600019166000191681526020019081526020016000205490509190505600a165627a7a723058208ffa6226fa6fa9a669db2a43641d97e4901b31b471e900ac7d22fa81ce9f7bcc0029",
  "source": "pragma solidity ^0.4.2;\r\n\r\ncontract BusinessStats {\r\n  mapping(bytes32 => uint) LikesCount;\r\n  mapping(bytes32 => uint) BookmarksCount;\r\n\r\n  function IncrementLikeCount(bytes32 bizID) public payable returns(bool) {\r\n    LikesCount[bizID]++;\r\n    return true;\r\n  }\r\n\r\n  function DecrementLikeCount(bytes32 bizID) public payable returns(bool) {\r\n    LikesCount[bizID]--;\r\n    return true;\r\n  }\r\n\r\n  function GetLikeCount(bytes32 bizID) public constant returns(uint) {\r\n    return LikesCount[bizID];\r\n  }\r\n\r\n  function IncrementBookmarkCount(bytes32 bizID) public payable returns(bool) {\r\n    BookmarksCount[bizID]++;\r\n    return true;\r\n  }\r\n\r\n  function DecrementBookmarkCount(bytes32 bizID) public payable returns(bool) {\r\n    BookmarksCount[bizID]--;\r\n    return true;\r\n  }\r\n\r\n  function GetBookmarkCount(bytes32 bizID) public constant returns(uint) {\r\n    return BookmarksCount[bizID];\r\n  }\r\n}\r\n",
  "sourcePath": "C:\\Users\\mpales\\Documents\\github\\solidity-react-auth\\contracts\\BusinessStats.sol",
  "compiler": {
    "name": "solc",
    "version": "0.4.18+commit.9cf6e910.Emscripten.clang"
  },
  "schemaVersion": "1.0.1",
  "updatedAt": "2017-12-28T02:37:06.457Z"
}