{
  "contractName": "Notification",
  "abi": [
    {
      "constant": true,
      "inputs": [],
      "name": "GetFriends",
      "outputs": [
        {
          "name": "",
          "type": "address[]"
        }
      ],
      "payable": false,
      "stateMutability": "view",
      "type": "function"
    },
    {
      "constant": true,
      "inputs": [],
      "name": "GetFriendRequestCount",
      "outputs": [
        {
          "name": "",
          "type": "uint256"
        }
      ],
      "payable": false,
      "stateMutability": "view",
      "type": "function"
    },
    {
      "constant": false,
      "inputs": [
        {
          "name": "from",
          "type": "address"
        }
      ],
      "name": "AcceptFriendRequest",
      "outputs": [
        {
          "name": "",
          "type": "bool"
        }
      ],
      "payable": true,
      "stateMutability": "payable",
      "type": "function"
    },
    {
      "constant": true,
      "inputs": [],
      "name": "GetFriendRequests",
      "outputs": [
        {
          "name": "",
          "type": "address[]"
        }
      ],
      "payable": false,
      "stateMutability": "view",
      "type": "function"
    },
    {
      "constant": false,
      "inputs": [
        {
          "name": "to",
          "type": "address"
        }
      ],
      "name": "SendFriendRequest",
      "outputs": [
        {
          "name": "",
          "type": "bool"
        }
      ],
      "payable": true,
      "stateMutability": "payable",
      "type": "function"
    }
  ],
  "bytecode": "0x6060604052341561000f57600080fd5b6109538061001e6000396000f30060606040526004361061006d576000357c0100000000000000000000000000000000000000000000000000000000900463ffffffff1680632e9adba214610072578063551f9be0146100dc5780636b2a638a14610105578063db7dabda1461014b578063e3cc8214146101b5575b600080fd5b341561007d57600080fd5b6100856101fb565b6040518080602001828103825283818151815260200191508051906020019060200280838360005b838110156100c85780820151818401526020810190506100ad565b505050509050019250505060405180910390f35b34156100e757600080fd5b6100ef6102ce565b6040518082815260200191505060405180910390f35b610131600480803573ffffffffffffffffffffffffffffffffffffffff16906020019091905050610317565b604051808215151515815260200191505060405180910390f35b341561015657600080fd5b61015e6106f1565b6040518080602001828103825283818151815260200191508051906020019060200280838360005b838110156101a1578082015181840152602081019050610186565b505050509050019250505060405180910390f35b6101e1600480803573ffffffffffffffffffffffffffffffffffffffff169060200190919050506107c4565b604051808215151515815260200191505060405180910390f35b6102036108c2565b6000803373ffffffffffffffffffffffffffffffffffffffff1673ffffffffffffffffffffffffffffffffffffffff1681526020019081526020016000206001018054806020026020016040519081016040528092919081815260200182805480156102c457602002820191906000526020600020905b8160009054906101000a900473ffffffffffffffffffffffffffffffffffffffff1673ffffffffffffffffffffffffffffffffffffffff168152602001906001019080831161027a575b5050505050905090565b60008060003373ffffffffffffffffffffffffffffffffffffffff1673ffffffffffffffffffffffffffffffffffffffff16815260200190815260200160002060020154905090565b6000806000803373ffffffffffffffffffffffffffffffffffffffff1673ffffffffffffffffffffffffffffffffffffffff168152602001908152602001600020600101805480600101828161036d91906108d6565b9160005260206000209001600085909190916101000a81548173ffffffffffffffffffffffffffffffffffffffff021916908373ffffffffffffffffffffffffffffffffffffffff16021790555050600090505b60016000803373ffffffffffffffffffffffffffffffffffffffff1673ffffffffffffffffffffffffffffffffffffffff1681526020019081526020016000206000018054905003811115156106e6578273ffffffffffffffffffffffffffffffffffffffff166000803373ffffffffffffffffffffffffffffffffffffffff1673ffffffffffffffffffffffffffffffffffffffff1681526020019081526020016000206000018281548110151561047657fe5b906000526020600020900160009054906101000a900473ffffffffffffffffffffffffffffffffffffffff1673ffffffffffffffffffffffffffffffffffffffff1614156106d9576000803373ffffffffffffffffffffffffffffffffffffffff1673ffffffffffffffffffffffffffffffffffffffff168152602001908152602001600020600101805480600101828161051191906108d6565b9160005260206000209001600085909190916101000a81548173ffffffffffffffffffffffffffffffffffffffff021916908373ffffffffffffffffffffffffffffffffffffffff160217905550506000808473ffffffffffffffffffffffffffffffffffffffff1673ffffffffffffffffffffffffffffffffffffffff16815260200190815260200160002060010180548060010182816105b391906108d6565b9160005260206000209001600033909190916101000a81548173ffffffffffffffffffffffffffffffffffffffff021916908373ffffffffffffffffffffffffffffffffffffffff160217905550506000803373ffffffffffffffffffffffffffffffffffffffff1673ffffffffffffffffffffffffffffffffffffffff1681526020019081526020016000206000018181548110151561065057fe5b906000526020600020900160006101000a81549073ffffffffffffffffffffffffffffffffffffffff02191690556000803373ffffffffffffffffffffffffffffffffffffffff1673ffffffffffffffffffffffffffffffffffffffff1681526020019081526020016000206002016000815480929190600190039190505550600191506106eb565b80806001019150506103c1565b600091505b50919050565b6106f96108c2565b6000803373ffffffffffffffffffffffffffffffffffffffff1673ffffffffffffffffffffffffffffffffffffffff1681526020019081526020016000206000018054806020026020016040519081016040528092919081815260200182805480156107ba57602002820191906000526020600020905b8160009054906101000a900473ffffffffffffffffffffffffffffffffffffffff1673ffffffffffffffffffffffffffffffffffffffff1681526020019060010190808311610770575b5050505050905090565b60008060008373ffffffffffffffffffffffffffffffffffffffff1673ffffffffffffffffffffffffffffffffffffffff168152602001908152602001600020600001805480600101828161081991906108d6565b9160005260206000209001600033909190916101000a81548173ffffffffffffffffffffffffffffffffffffffff021916908373ffffffffffffffffffffffffffffffffffffffff160217905550506000808373ffffffffffffffffffffffffffffffffffffffff1673ffffffffffffffffffffffffffffffffffffffff1681526020019081526020016000206002016000815480929190600101919050555060019050919050565b602060405190810160405280600081525090565b8154818355818115116108fd578183600052602060002091820191016108fc9190610902565b5b505050565b61092491905b80821115610920576000816000905550600101610908565b5090565b905600a165627a7a72305820b2ec4985ecaf60a7dfad67af9ba854d78752ed54ce8fba1d825ac75261b60fc20029",
  "source": "pragma solidity ^0.4.2;\n\ncontract Notification {\n\tstruct Notifications{\n\t\taddress[] FriendRequests;\n\t\taddress[] Friends;\n\t\tuint FriendRequestCount;\n\t}\n\t// User: array of requests\n\t/*mapping(address => address[]) FriendRequests;*/\n\t/*mapping(address => address[]) Friends;*/\n\tmapping(address => Notifications) notifs;\n\n\n\tfunction SendFriendRequest(address to) public payable returns(bool) {\n\t\tnotifs[to].FriendRequests.push(msg.sender);\n\t\tnotifs[to].FriendRequestCount++;\n\t\treturn true;\n\t}\n\n\tfunction GetFriendRequests() public constant returns(address[]) {\n\t    return notifs[msg.sender].FriendRequests;\n\t}\n\n\tfunction GetFriendRequestCount() public constant returns(uint) {\n\t\treturn notifs[msg.sender].FriendRequestCount;\n\t}\n\n\tfunction AcceptFriendRequest(address from) public payable returns(bool) {\n\t\tnotifs[msg.sender].Friends.push(from);\n\t\tfor(uint i=0; i<=notifs[msg.sender].FriendRequests.length-1; i++) {\n\t\t\tif(notifs[msg.sender].FriendRequests[i] == from) {\n\t\t\t\tnotifs[msg.sender].Friends.push(from);\n\t\t\t\tnotifs[from].Friends.push(msg.sender);\n\t\t\t\tdelete notifs[msg.sender].FriendRequests[i];\n\t\t\t\tnotifs[msg.sender].FriendRequestCount--;\n\t\t\t\treturn true;\n\t\t\t}\n\t\t}\n\n\t\treturn false;\n\t}\n\n\tfunction GetFriends() public constant returns(address[]) {\n\t\treturn notifs[msg.sender].Friends;\n\t}\n}\n",
  "sourcePath": "/home/chael/Documents/ethereum/solidity-react-auth/contracts/Notification.sol",
  "compiler": {
    "name": "solc",
    "version": "0.4.18+commit.9cf6e910.Emscripten.clang"
  },
  "schemaVersion": "1.0.1",
  "updatedAt": "2017-12-28T11:03:32.576Z"
}