{
  "contractName": "Notification",
  "abi": [
    {
      "constant": false,
      "inputs": [
        {
          "name": "sender",
          "type": "address"
        }
      ],
      "name": "AcceptFriendRequest",
      "outputs": [
        {
          "name": "",
          "type": "bool"
        }
      ],
      "payable": true,
      "stateMutability": "payable",
      "type": "function"
    },
    {
      "constant": true,
      "inputs": [
        {
          "name": "",
          "type": "uint256"
        }
      ],
      "name": "requests",
      "outputs": [
        {
          "name": "",
          "type": "address"
        }
      ],
      "payable": false,
      "stateMutability": "view",
      "type": "function"
    },
    {
      "constant": false,
      "inputs": [],
      "name": "GetFriendRequests",
      "outputs": [
        {
          "name": "",
          "type": "address[]"
        }
      ],
      "payable": false,
      "stateMutability": "nonpayable",
      "type": "function"
    },
    {
      "constant": false,
      "inputs": [
        {
          "name": "to",
          "type": "address"
        }
      ],
      "name": "SendFriendRequest",
      "outputs": [
        {
          "name": "",
          "type": "bool"
        }
      ],
      "payable": true,
      "stateMutability": "payable",
      "type": "function"
    }
  ],
  "bytecode": "0x6060604052341561000f57600080fd5b6107e98061001e6000396000f300606060405260043610610062576000357c0100000000000000000000000000000000000000000000000000000000900463ffffffff1680636b2a638a1461006757806381d12c58146100ad578063db7dabda14610110578063e3cc82141461017a575b600080fd5b610093600480803573ffffffffffffffffffffffffffffffffffffffff169060200190919050506101c0565b604051808215151515815260200191505060405180910390f35b34156100b857600080fd5b6100ce6004808035906020019091905050610352565b604051808273ffffffffffffffffffffffffffffffffffffffff1673ffffffffffffffffffffffffffffffffffffffff16815260200191505060405180910390f35b341561011b57600080fd5b610123610391565b6040518080602001828103825283818151815260200191508051906020019060200280838360005b8381101561016657808201518184015260208101905061014b565b505050509050019250505060405180910390f35b6101a6600480803573ffffffffffffffffffffffffffffffffffffffff169060200190919050506105cd565b604051808215151515815260200191505060405180910390f35b600080600090505b6000803373ffffffffffffffffffffffffffffffffffffffff1673ffffffffffffffffffffffffffffffffffffffff1681526020019081526020016000208054905081111515610347578273ffffffffffffffffffffffffffffffffffffffff166000803373ffffffffffffffffffffffffffffffffffffffff1673ffffffffffffffffffffffffffffffffffffffff1681526020019081526020016000208281548110151561027457fe5b906000526020600020900160000160009054906101000a900473ffffffffffffffffffffffffffffffffffffffff1673ffffffffffffffffffffffffffffffffffffffff16141561033a5760016000803373ffffffffffffffffffffffffffffffffffffffff1673ffffffffffffffffffffffffffffffffffffffff1681526020019081526020016000208281548110151561030c57fe5b906000526020600020900160000160146101000a81548160ff0219169083151502179055506001915061034c565b80806001019150506101c8565b600091505b50919050565b60028181548110151561036157fe5b90600052602060002090016000915054906101000a900473ffffffffffffffffffffffffffffffffffffffff1681565b6103996106d2565b60008090505b6000803373ffffffffffffffffffffffffffffffffffffffff1673ffffffffffffffffffffffffffffffffffffffff1681526020019081526020016000208054905081111515610540576000803373ffffffffffffffffffffffffffffffffffffffff1673ffffffffffffffffffffffffffffffffffffffff1681526020019081526020016000208181548110151561043457fe5b906000526020600020900160000160149054906101000a900460ff161515610533576002805480600101828161046a91906106e6565b916000526020600020900160008060003373ffffffffffffffffffffffffffffffffffffffff1673ffffffffffffffffffffffffffffffffffffffff168152602001908152602001600020848154811015156104c257fe5b906000526020600020900160000160009054906101000a900473ffffffffffffffffffffffffffffffffffffffff16909190916101000a81548173ffffffffffffffffffffffffffffffffffffffff021916908373ffffffffffffffffffffffffffffffffffffffff160217905550505b808060010191505061039f565b60028054806020026020016040519081016040528092919081815260200182805480156105c257602002820191906000526020600020905b8160009054906101000a900473ffffffffffffffffffffffffffffffffffffffff1673ffffffffffffffffffffffffffffffffffffffff1681526020019060010190808311610578575b505050505091505090565b60008060008373ffffffffffffffffffffffffffffffffffffffff1673ffffffffffffffffffffffffffffffffffffffff168152602001908152602001600020805480600101828161061f9190610712565b9160005260206000209001600060408051908101604052803373ffffffffffffffffffffffffffffffffffffffff16815260200160001515815250909190915060008201518160000160006101000a81548173ffffffffffffffffffffffffffffffffffffffff021916908373ffffffffffffffffffffffffffffffffffffffff16021790555060208201518160000160146101000a81548160ff02191690831515021790555050505060019050919050565b602060405190810160405280600081525090565b81548183558181151161070d5781836000526020600020918201910161070c919061073e565b5b505050565b815481835581811511610739578183600052602060002091820191016107389190610763565b5b505050565b61076091905b8082111561075c576000816000905550600101610744565b5090565b90565b6107ba91905b808211156107b657600080820160006101000a81549073ffffffffffffffffffffffffffffffffffffffff02191690556000820160146101000a81549060ff021916905550600101610769565b5090565b905600a165627a7a72305820f03d0cbd4a63b0ecc10cbc60b7d6aaebb621198d24631194c2ee7e3edfc339620029",
  "source": "pragma solidity ^0.4.2;\r\n\r\ncontract Notification {\r\n  struct Request {\r\n    address from;\r\n    bool accepted;\r\n  }\r\n  mapping(address => Request[]) FriendRequests;\r\n  struct Friends {\r\n    address[] friends;\r\n  }\r\n  mapping(address => Friends) friends;\r\n  address[] public requests;\r\n\r\n  function SendFriendRequest(address to) public payable returns(bool) {\r\n    FriendRequests[to].push(Request(msg.sender, false));\r\n    return true;\r\n  }\r\n\r\n  function GetFriendRequests() public returns(address[]) {\r\n    for(uint i=0; i<=FriendRequests[msg.sender].length;i++) {\r\n      if(!(FriendRequests[msg.sender][i].accepted)) {\r\n        requests.push(FriendRequests[msg.sender][i].from);\r\n      }\r\n    }\r\n    return requests;\r\n  }\r\n\r\n  function AcceptFriendRequest(address sender) public payable returns(bool) {\r\n    for(uint i=0; i<=FriendRequests[msg.sender].length;i++) {\r\n      if(FriendRequests[msg.sender][i].from == sender) {\r\n        FriendRequests[msg.sender][i].accepted = true;\r\n        return true;\r\n      }\r\n    }\r\n\r\n    return false;\r\n  }\r\n}\r\n",
  "sourcePath": "C:\\Users\\mpales\\Documents\\ethereumpractice\\react-auth\\contracts\\Notification.sol",
  "compiler": {
    "name": "solc",
    "version": "0.4.18+commit.9cf6e910.Emscripten.clang"
  },
  "schemaVersion": "1.0.1",
  "updatedAt": "2017-12-27T05:40:09.247Z"
}