{
  "contractName": "Notification",
  "abi": [
    {
      "constant": true,
      "inputs": [],
      "name": "GetFriends",
      "outputs": [
        {
          "name": "",
          "type": "address[]"
        }
      ],
      "payable": false,
      "stateMutability": "view",
      "type": "function"
    },
    {
      "constant": true,
      "inputs": [],
      "name": "GetFriendRequestCount",
      "outputs": [
        {
          "name": "",
          "type": "uint256"
        }
      ],
      "payable": false,
      "stateMutability": "view",
      "type": "function"
    },
    {
      "constant": false,
      "inputs": [
        {
          "name": "from",
          "type": "address"
        }
      ],
      "name": "AcceptFriendRequest",
      "outputs": [
        {
          "name": "",
          "type": "bool"
        }
      ],
      "payable": true,
      "stateMutability": "payable",
      "type": "function"
    },
    {
      "constant": true,
      "inputs": [],
      "name": "GetFriendRequests",
      "outputs": [
        {
          "name": "",
          "type": "address[]"
        }
      ],
      "payable": false,
      "stateMutability": "view",
      "type": "function"
    },
    {
      "constant": false,
      "inputs": [
        {
          "name": "to",
          "type": "address"
        }
      ],
      "name": "SendFriendRequest",
      "outputs": [
        {
          "name": "",
          "type": "bool"
        }
      ],
      "payable": true,
      "stateMutability": "payable",
      "type": "function"
    }
  ],
  "bytecode": "0x6060604052341561000f57600080fd5b6108998061001e6000396000f30060606040526004361061006d576000357c0100000000000000000000000000000000000000000000000000000000900463ffffffff1680632e9adba214610072578063551f9be0146100dc5780636b2a638a14610105578063db7dabda1461014b578063e3cc8214146101b5575b600080fd5b341561007d57600080fd5b6100856101fb565b6040518080602001828103825283818151815260200191508051906020019060200280838360005b838110156100c85780820151818401526020810190506100ad565b505050509050019250505060405180910390f35b34156100e757600080fd5b6100ef6102cc565b6040518082815260200191505060405180910390f35b610131600480803573ffffffffffffffffffffffffffffffffffffffff16906020019091905050610315565b604051808215151515815260200191505060405180910390f35b341561015657600080fd5b61015e61068e565b6040518080602001828103825283818151815260200191508051906020019060200280838360005b838110156101a1578082015181840152602081019050610186565b505050509050019250505060405180910390f35b6101e1600480803573ffffffffffffffffffffffffffffffffffffffff1690602001909190505061075e565b604051808215151515815260200191505060405180910390f35b610203610808565b600160003373ffffffffffffffffffffffffffffffffffffffff1673ffffffffffffffffffffffffffffffffffffffff1681526020019081526020016000208054806020026020016040519081016040528092919081815260200182805480156102c257602002820191906000526020600020905b8160009054906101000a900473ffffffffffffffffffffffffffffffffffffffff1673ffffffffffffffffffffffffffffffffffffffff1681526020019060010190808311610278575b5050505050905090565b60008060003373ffffffffffffffffffffffffffffffffffffffff1673ffffffffffffffffffffffffffffffffffffffff16815260200190815260200160002080549050905090565b600080600160003373ffffffffffffffffffffffffffffffffffffffff1673ffffffffffffffffffffffffffffffffffffffff1681526020019081526020016000208054806001018281610369919061081c565b9160005260206000209001600085909190916101000a81548173ffffffffffffffffffffffffffffffffffffffff021916908373ffffffffffffffffffffffffffffffffffffffff16021790555050600090505b60016000803373ffffffffffffffffffffffffffffffffffffffff1673ffffffffffffffffffffffffffffffffffffffff168152602001908152602001600020805490500381111515610683578273ffffffffffffffffffffffffffffffffffffffff166000803373ffffffffffffffffffffffffffffffffffffffff1673ffffffffffffffffffffffffffffffffffffffff1681526020019081526020016000208281548110151561046c57fe5b906000526020600020900160009054906101000a900473ffffffffffffffffffffffffffffffffffffffff1673ffffffffffffffffffffffffffffffffffffffff16141561067657600160003373ffffffffffffffffffffffffffffffffffffffff1673ffffffffffffffffffffffffffffffffffffffff1681526020019081526020016000208054806001018281610505919061081c565b9160005260206000209001600085909190916101000a81548173ffffffffffffffffffffffffffffffffffffffff021916908373ffffffffffffffffffffffffffffffffffffffff16021790555050600160008473ffffffffffffffffffffffffffffffffffffffff1673ffffffffffffffffffffffffffffffffffffffff16815260200190815260200160002080548060010182816105a5919061081c565b9160005260206000209001600033909190916101000a81548173ffffffffffffffffffffffffffffffffffffffff021916908373ffffffffffffffffffffffffffffffffffffffff160217905550506000803373ffffffffffffffffffffffffffffffffffffffff1673ffffffffffffffffffffffffffffffffffffffff1681526020019081526020016000208181548110151561063f57fe5b906000526020600020900160006101000a81549073ffffffffffffffffffffffffffffffffffffffff021916905560019150610688565b80806001019150506103bd565b600091505b50919050565b610696610808565b6000803373ffffffffffffffffffffffffffffffffffffffff1673ffffffffffffffffffffffffffffffffffffffff16815260200190815260200160002080548060200260200160405190810160405280929190818152602001828054801561075457602002820191906000526020600020905b8160009054906101000a900473ffffffffffffffffffffffffffffffffffffffff1673ffffffffffffffffffffffffffffffffffffffff168152602001906001019080831161070a575b5050505050905090565b60008060008373ffffffffffffffffffffffffffffffffffffffff1673ffffffffffffffffffffffffffffffffffffffff16815260200190815260200160002080548060010182816107b0919061081c565b9160005260206000209001600033909190916101000a81548173ffffffffffffffffffffffffffffffffffffffff021916908373ffffffffffffffffffffffffffffffffffffffff1602179055505060019050919050565b602060405190810160405280600081525090565b815481835581811511610843578183600052602060002091820191016108429190610848565b5b505050565b61086a91905b8082111561086657600081600090555060010161084e565b5090565b905600a165627a7a723058206c65b4b31c36fadf7a900151dd79bc8702afacd886e19d18fe2a7aab15c128480029",
  "source": "pragma solidity ^0.4.2;\r\n\r\ncontract Notification {\r\n\t// User: array of requests\r\n\tmapping(address => address[]) FriendRequests;\r\n\tmapping(address => address[]) Friends;\r\n\r\n\tfunction SendFriendRequest(address to) public payable returns(bool) {\r\n\t\tFriendRequests[to].push(msg.sender);\r\n\t\treturn true;\r\n\t}\r\n\r\n\tfunction GetFriendRequests() public constant returns(address[]) {\r\n\t    return FriendRequests[msg.sender];\r\n\t}\r\n\r\n\tfunction GetFriendRequestCount() public constant returns(uint) {\r\n\t\treturn FriendRequests[msg.sender].length;\r\n\t}\r\n\r\n\tfunction AcceptFriendRequest(address from) public payable returns(bool) {\r\n\t\tFriends[msg.sender].push(from);\r\n\t\tfor(uint i=0; i<=FriendRequests[msg.sender].length-1; i++) {\r\n\t\t\tif(FriendRequests[msg.sender][i] == from) {\r\n\t\t\t\tFriends[msg.sender].push(from);\r\n\t\t\t\tFriends[from].push(msg.sender);\r\n\t\t\t\tdelete FriendRequests[msg.sender][i];\r\n\t\t\t\treturn true;\r\n\t\t\t}\r\n\t\t}\r\n\r\n\t\treturn false;\r\n\t}\r\n\r\n\tfunction GetFriends() public constant returns(address[]) {\r\n\t\treturn Friends[msg.sender];\r\n\t}\r\n\r\n\t/*struct Request {\r\n    address from;\r\n    bool accepted;\r\n  }\r\n  mapping(address => Request[]) FriendRequests;\r\n  struct Friends {\r\n    address[] friends;\r\n  }\r\n  mapping(address => Friends) friends;\r\n  address[] public requestsFrom;\r\n\r\n  function SendFriendRequest(address to) public payable returns(bool) {\r\n    FriendRequests[to].push(Request(msg.sender, false));\r\n\t\trequestsFrom.push(msg.sender);\r\n    return true;\r\n  }\r\n\r\n  function GetFriendRequests() public returns(address[]) {\r\n    for(uint i=0; i<=requests.length;i++) {\r\n      if(!(FriendRequests[msg.sender][i].accepted)) {\r\n        requests.push(FriendRequests[msg.sender][i].from);\r\n      }\r\n    }\r\n    return requests;\r\n  }\r\n\r\n  function AcceptFriendRequest(address sender) public payable returns(bool) {\r\n    for(uint i=0; i<=FriendRequests[msg.sender].length;i++) {\r\n      if(FriendRequests[msg.sender][i].from == sender) {\r\n        FriendRequests[msg.sender][i].accepted = true;\r\n        return true;\r\n      }\r\n    }\r\n\r\n    return false;\r\n  }*/\r\n}\r\n",
  "sourcePath": "C:\\Users\\mpales\\Documents\\github\\solidity-react-auth\\contracts\\Notification.sol",
  "compiler": {
    "name": "solc",
    "version": "0.4.18+commit.9cf6e910.Emscripten.clang"
  },
  "schemaVersion": "1.0.1",
  "updatedAt": "2017-12-28T02:37:06.442Z"
}